:020000040800F2
:10000000A82C01208D02000895020008CD9A000856
:10001000990200089B0200089D02000800000000F1
:100020000000000000000000000000009F02000827
:10003000A102000800000000A30200088DD1000802
:10004000A7020008A7020008A7020008A7020008EC
:10005000A7020008A7020008A7020008A7020008DC
:10006000A7020008A7020008A7020008ED28000860
:10007000FD2800080D290008A70200081D29000816
:10008000A70200082D290008A7020008A7020008FF
:10009000A7020008A7020008A7020008A70200089C
:1000A000A7020008A7020008A7020008A70200088C
:1000B000A7020008A7020008A7020008A70200087C
:1000C000A7020008A7020008A7020008A70200086C
:1000D000A7020008A7020008A7020008F1DF000835
:1000E000A7020008A7020008A7020008A70200084C
:1000F000A7020008A7020008A7020008A70200083C
:10010000A7020008A7020008A7020008A70200082B
:10011000A7020008A7020008A702000865D200088D
:10012000A70200083D290008A7020008A70200084E
:10013000A7020008A7020008A7020008A7020008FB
:10014000A7020008A7020008A7020008A7020008EB
:100150004D290008A7020008A7020008A70200080E
:10016000A7020008A7020008A7020008A7020008CB
:10017000A7020008A7020008DD2800080000000010
:10018000A7020008A7020008A7020008A7020008AB
:10019000A7020008A7020008A7020008A70200089B
:1001A000A7020008A7020008A702000800F002F852
:1001B00000F05CF80AA090E8000C82448344AAF1A5
:1001C0000107DA4501D100F051F8AFF2090EBAE8A3
:1001D0000F0013F0010F18BFFB1A43F0010318477B
:1001E0005C0401007C0401000A444FF0000C10F88C
:1001F000013B13F0070408BF10F8014B1D1108BFA5
:1002000010F8015B641E05D010F8016B641E01F844
:10021000016BF9D113F0080F1EBF10F8014BAD1C94
:100220000C1B09D16D1E58BF01F801CBFAD505E0B2
:1002300014F8016B01F8016B6D1EF9D59142D6D30C
:10024000704700000023002400250026103A28BF34
:1002500078C1FBD8520728BF30C148BF0B60704738
:100260001FB50FF052FC1FBD10B510BD00F092F984
:100270001146FFF7F5FF0EF05DF900F0B0F903B499
:10028000FFF7F2FF03BC00F0B7F900000948804710
:1002900009480047FEE7FEE7FEE7FEE7FEE7FEE768
:1002A000FEE7FEE7FEE7FEE704480549054A064B80
:1002B0007047000051D20008AD010008A8220120BB
:1002C000A82C0120A8270120A827012053EA020C0E
:1002D00000F069802DE9F04B4FF00006002B1FBFA6
:1002E000B3FA83F503FA05F424FA05F65E4012BF6B
:1002F0001643B2FA82F502FA05F4C5F120051EBFD5
:1003000022FA05FC44EA0C04203556EA044C4FEA74
:10031000144418BF641C4FF000084FF000099042CD
:1003200071EB030C39D3002919BFB1FA81F701FA37
:1003300007F6B0FA80F700FA07F6C7F120071EBFEC
:1003400020FA07FC46EA0C062037B6FBF4FCA7EBC4
:100350000507103F07F01F0BCBF120062CFA06F61D
:100360000CFA0BFB44BFB3460026202FA4BF5E4609
:100370004FF0000B5BEA060C08BF4FF0010B19EBC6
:100380000B0948EB0608ABFB027C06FB02CC0BFB1F
:1003900003CCC01B71EB0C01C1E70B460246414682
:1003A0004846BDE8F08B13B5084318BF4FF0FF3047
:1003B0000146AFF30080BDE81C40704740EA0103EE
:1003C00010B59B070FD1042A0DD310C808C9121FFE
:1003D0009C42F8D020BA19BA884201D9012010BD38
:1003E0004FF0FF3010BD1AB1D30703D0521C07E005
:1003F000002010BD10F8013B11F8014B1B1B07D169
:1004000010F8013B11F8014B1B1B01D1921EF1D1D9
:10041000184610BD10B5431C02E010F8011B71B165
:100420008107FAD14FF0013202C88C1A8C4314EACA
:10043000C211F9D0C01A0A0603D0C01E10BDC01ADE
:1004400010BD0A0401D0801E10BD0902FCD0401E60
:1004500010BD032A40F2308010F0030C00F015802C
:1004600011F8013BBCF1020F624498BF11F801CBB7
:1004700000F8013B38BF11F8013BA2F1040298BF1C
:1004800000F801CB38BF00F8013B11F0030300F086
:100490004F80083AC0F0088051F8043B083A51F800
:1004A00004CBA0E80810F5E7121D5CBF51F8043B2F
:1004B00040F8043BAFF30080D20724BF11F8013BA2
:1004C00011F801CB48BF11F8012B24BF00F8013B04
:1004D00000F801CB48BF00F8012B70474FF0000235
:1004E00000B5134694469646203922BFA0E80C502A
:1004F000A0E80C50B1F12001BFF4F7AF090728BF05
:10050000A0E80C5048BF0CC05DF804EB890028BF80
:1005100040F8042B08BF704748BF20F8022B11F0A9
:10052000804F18BF00F8012B704770477047704725
:1005300010B5203AC0F00B80B1E81850A0E8185070
:10054000B1E81850A0E81850203ABFF4F5AF5FEAC0
:10055000027C24BFB1E81850A0E8185044BF18C965
:1005600018C0BDE810405FEA827C24BF51F8043B0C
:1005700040F8043B08BF7047D20728BF31F8023B60
:1005800048BF11F8012B28BF20F8023B48BF00F8F4
:10059000012B7047754600F02BF8AE460500694602
:1005A000534620F00700854618B020B5FFF77CFEC3
:1005B000BDE820404FF000064FF000074FF0000864
:1005C0004FF0000BAC46ACE8C009ACE8C009ACE8A1
:1005D000C009ACE8C00921F007018D46704710B58D
:1005E0000446AFF300802046BDE81040FFF747BE49
:1005F000004870478002002001491820ABBEFEE78A
:10060000260002007047000082B0019042F20030E4
:10061000C4F2010000900099486820F4403048601E
:100620000198426800994868104348600198016841
:10063000486820F480704860019801680269486841
:1006400040EA0220486001980168486820F0407044
:1006500048600198016882684868104348600198C2
:100660000168886820F40060886001980168C268A9
:100670008868104388600198806A0121C0F6007183
:10068000884219D0FFE701980168886820F07060FF
:10069000886001980168826A8868104388600198C0
:1006A0000168886820F04050886001980168C26A3B
:1006B0008868104388600CE001980168886820F021
:1006C0007060886001980168886820F040508860F8
:1006D000FFE701980168886820F0020088600198AF
:1006E000027E0168886840EA42008860019890F8BC
:1006F0002000C8B1FFE701980168486840F4006035
:10070000486001980168486820F46040486001989A
:100710000168426A4EF20000CFF6FF7000EB4232F1
:1007200048681043486006E001980168486820F472
:1007300000604860FFE701980168C86A20F4700013
:10074000C86201980168C2690020CFF6F07000EB22
:100750000252C86A1043C86201980168886820F490
:1007600000708860019890F830200168886840EA3D
:100770004220886001980168886820F48060886061
:10078000019801684269886840EA8220886002B066
:100790007047000080B582B00190019940F2E020DE
:1007A000C2F2000000904FF6BC52C0F6000200F00A
:1007B00097F8009840F2AC01C2F2000100F086F90F
:1007C000009840F28001C2F2000100F011F8009898
:1007D00040F29831C2F2000100F0AAF9009840F20C
:1007E000AC31C2F2000100F0E1F9002002B080BD9E
:1007F00083B001900091019800285BD0FFE700983A
:10080000002857D0FFE7019940F2D450C0F601000C
:10081000C86001980061009801994861019940F20F
:10082000B810C2F200008861009948684861009AD7
:1008300092F8280000F00C01012000FA01F191610A
:10084000009A516892F8283003F00C0319443431AF
:10085000D161009A11689160009991F8282002F006
:10086000030292009040C8600099086891F828201F
:1008700002F0030200EB8200343008610098416806
:10088000486C40F40040486400980168486C40F4AB
:100890000040486400984168086840F00100086022
:1008A00000980168086840F00100086000208DF899
:1008B0000B0003E002208DF80B00FFE79DF80B0012
:1008C00003B0704780B582B001900198D0F89810BD
:1008D0008847019881690968884702B080BD000097
:1008E00084B00290019100920298D0B1FFE7009885
:1008F000B8B1FFE7029940F2C950C0F601000860A4
:1009000001980299486000980299886002994FF610
:100910006430C0F60000C1F8B00000208DF80F0070
:1009200003E008208DF80F00FFE79DF80F0004B0EA
:10093000704700000000000080B584B00390029171
:100940000298407A01460191A0B1FFE70198012881
:1009500020D1FFE7039991F8290000F0FE0081F80B
:100960002900039991F8280000F0F000013081F887
:10097000280010E0039991F8290000F0FD0081F8AB
:100980002900039991F8280000F0F000023081F866
:10099000280000E0FFE70399086A086302980068EE
:1009A00003994863039991F8280000F00F0081F83B
:1009B0002800029840680399C8630399002088635F
:1009C0000298007A039981F82A00039890ED070AAB
:1009D0009FED191A80EE010A80ED0B0A0398406B17
:1009E0000EF0F8FF41EC100B9FED111B53EC112B97
:1009F00051EC100B0FF035F830B9FFE703990020E8
:100A0000C4F2C8204863FFE7039890ED0C0A90ED0C
:100A10000D1AB4EE410AF1EE10FA04DDFFE7039976
:100A2000486B0863FFE704B080BD00BF00BF00BF94
:100A3000000000000000594000007A4480B586B0F4
:100A40000590049105984069039005980499FFF773
:100A500073FF0498407A0146019148B1FFE701987D
:100A600001280AD1FFE7039901F10800086205E0B7
:100A7000039901F11400086200E0FFE7059890ED8A
:100A80000C0A9FED111A80EE010A0398006A0068B3
:100A900090ED0B1AB8EE411A20EE010ABDEEC00A25
:100AA00010EE100AADF80A00BDF80A000399096AB1
:100AB000896808600398006A01684268086A104300
:100AC0000862002006B080BD0000C84283B00190DB
:100AD0000091019818B3FFE7009800B3FFE7019970
:100AE00040F22360C0F60100C1F88C000198C0F804
:100AF000900000980199C1F89400019949F6D51029
:100B0000C0F60000C1F8980001994BF63D70C0F6A0
:100B10000000C1F89C0000208DF80B0003E00220CB
:100B20008DF80B00FFE79DF80B0003B07047000045
:100B300083B001900091019880B3FFE7009868B3FB
:100B4000FFE7019940F2ED50C0F6010008640198FA
:100B50004064009801998864019949F6C510C0F66F
:100B60000000C864019942F69560C0F6000008656F
:100B700001994BF61570C0F600004865019943F2E3
:100B80001530C0F60000886501994CF29D60C0F6F2
:100B90000000C86500208DF80B0003E002208DF8EE
:100BA0000B00FFE79DF80B0003B0704783B0019086
:100BB0000091019898B3FFE7009880B3FFE701998F
:100BC00040F20860C0F60100C8660198006700980E
:100BD00001994867019949F6CD10C0F60000886771
:100BE000019942F6A960C0F60000C86701994BF66A
:100BF0002970C0F60000C1F88000019943F2253049
:100C0000C0F60000C1F8840001994CF2AD60C0F656
:100C10000000C1F8880000208DF80B0003E00220DE
:100C20008DF80B00FFE79DF80B0003B07047000044
:100C300080B582B0019001984169D1F808C00121C6
:100C400000231A46E04702B080BD000080B582B0A4
:100C500001900198416909688847019830300EF089
:100C6000A7F802B080BD000084B00290019100920C
:100C70000298C0B1FFE70098A8B1FFE7029940F2DF
:100C80001C50C0F601000860019802994860009865
:100C9000029988610299087F00F087000877002098
:100CA0008DF80F0003E008208DF80F00FFE79DF896
:100CB0000F0004B07047000080B584B0029001912D
:100CC0000298002849D0FFE70198002845D0FFE7A7
:100CD000029940F22450C0F6010088600298C0607A
:100CE00001980299086102980199086002980830F9
:100CF0000AF03AF90298806908210DF01BFD38B11D
:100D0000FFE70299487F082262F31F1048771EE030
:100D10000299487F00F00F004877019A101D029950
:100D200040F21803C0F60103EC46CCF800304FF651
:100D30005063C0F600030AF0A7F902460299487F03
:100D400002F00F0200F0F00010444877FFE702982D
:100D5000407F00098DF80F0003E008208DF80F0098
:100D6000FFE79DF80F0004B080BD000080B584B09F
:100D7000039000208DF80B00039940F2BC30C2F2C2
:100D8000000040F2C802C2F20002FFF76DFF8DF8CA
:100D90000B009DF80B0008B1FFE724E040F2BC30E7
:100DA000C2F20000019040F6F001C2F2000141667B
:100DB0004FF6FC71816640F2D001C2F20001FFF7EC
:100DC0007BFF014601988DF80B104FF69431C0F669
:100DD0000001C162303064214FF4FA629FED040AD1
:100DE0000DF0FCFFFFE79DF80B0004B080BD00BFD5
:100DF000CDCC4C3F80B582B001908DF803100198A6
:100E000041690B699DF90320062198478DF802007E
:100E10009DF8020030B9FFE79DF80300019981F8C1
:100E20002400FFE79DF8020002B080BD80B584B0C9
:100E300003900291ADF8062003984169D1F808C0EB
:100E4000029ABDF806300221E04704B080BD0000E0
:100E500080B582B001908DF80310019841690B694B
:100E60009DF90320042198478DF802009DF80200A7
:100E700030B9FFE79DF80300019981F82200FFE7F0
:100E80009DF8020002B080BD80B582B001908DF85F
:100E90000310019841690B699DF803200A219847C6
:100EA0008DF802009DF8020030B9FFE79DF80300BD
:100EB000019981F82800FFE79DF8020002B080BD8B
:100EC00080B582B001908DF80310019841690B69DB
:100ED0009DF80320072198478DF802009DF8020035
:100EE00030B9FFE79DF80300019981F82500FFE77D
:100EF0009DF8020002B080BD80B584B003900291DD
:100F000003984169D1F808C0029A03210023E04701
:100F10008DF807009DF8070038B9FFE703982030E7
:100F2000029909220DF028FCFFE79DF8070004B0A4
:100F300080BD000080B582B001908DF8031001984B
:100F400041690B699DF80320022198478DF8020042
:100F50009DF8020030B9FFE79DF80300019981F880
:100F60002000FFE79DF8020002B080BD80B582B08E
:100F700001908DF80310019841690B699DF80320D9
:100F8000092198478DF802009DF8020030B9FFE76B
:100F90009DF80300019981F82700FFE79DF8020002
:100FA00002B080BD80B582B001908DF80310019829
:100FB00041690B699DF80320032198478DF80200D1
:100FC0009DF8020030B9FFE79DF80300019981F810
:100FD0002100FFE79DF8020002B080BD80B582B01D
:100FE00001908DF80310019841690B699DF9032068
:100FF000052198478DF802009DF8020030B9FFE7FF
:101000009DF80300019981F82300FFE79DF8020095
:1010100002B080BD80B582B001908DF803100198B8
:1010200041690B699DF80320082198478DF802005B
:101030009DF8020030B9FFE79DF80300019981F89F
:101040002600FFE79DF8020002B080BD80B582B0A7
:101050000190019800680090019800690099203182
:1010600009220DF0FBFB02B080BD000080B582B00C
:101070000190019800680090009890F8200028B135
:10108000FFE700980021FFF755FFFFE70098FFF703
:10109000CFFD80B9FFE7009830304FF6B431C0F68D
:1010A00000010DF0A5FD00983030019909694969EA
:1010B0000DF0C4FEFFE702B080BD000081B00090DB
:1010C00001B0704780B582B001900198006800902F
:1010D0000198006900991C3104220DF0BFFB02B099
:1010E00080BD000080B584B0039002910398006831
:1010F00001900198029991F90010FFF77BFEADF87D
:101100000200039800690DF1020102220DF0A6FB16
:10111000039800690199243101220DF09FFB04B06E
:1011200080BD000080B586B005900491ADF80E201A
:1011300005980068029002980499BDF80E20FFF708
:1011400075FEADF80600059800690DF10601022252
:101150000DF084FB06B080BD80B584B00390029191
:101160000398006801900198029991F90010FFF727
:101170006FFEADF80200039800690DF10201022232
:101180000DF06CFB039800690199223101220DF0EA
:1011900065FB04B080BD000080B584B0039002916F
:1011A000039800680190019802990978FFF76CFE96
:1011B000ADF80200039800690DF1020102220DF062
:1011C0004DFB039800690199283101220DF046FB7F
:1011D00004B080BD80B584B003900291039800688C
:1011E0000190019802990978FFF76AFEADF80200B4
:1011F000039800690DF1020102220DF02FFB039804
:1012000000690199253101220DF028FB04B080BD51
:1012100080B584B003900291039800680190019812
:101220000299FFF769FEADF80200039800690DF11D
:10123000020102220DF012FB03980069019920318E
:1012400009220DF00BFB04B080BD000080B584B016
:10125000039002910398006801900198029909781F
:10126000FFF768FEADF80200039800690DF1020176
:1012700002220DF0F3FA039800690199203101224E
:101280000DF0ECFA04B080BD80B584B003900291FB
:10129000039800680190019802990978FFF766FEAB
:1012A000ADF80200039800690DF1020102220DF071
:1012B000D5FA039800690199273101220DF0CEFA81
:1012C00004B080BD80B584B003900291039800689B
:1012D0000190019802990978FFF764FEADF80200C9
:1012E000039800690DF1020102220DF0B7FA03988C
:1012F00000690199213101220DF0B0FA04B080BDDE
:1013000080B584B003900291039800680190019821
:10131000029991F90010FFF761FEADF80200039801
:1013200000690DF1020102220DF098FA039800699C
:101330000199233101220DF091FA04B080BD000023
:1013400080B584B0039002910398006801900198E1
:1013500002990978FFF75EFEADF802000398006974
:101360000DF1020102220DF079FA0398006901994A
:10137000263101220DF072FA04B080BD80B586B02E
:1013800005900598C06EC0F3832001282CD0FFE79C
:101390000598C06E8008000730BBFFE7059948F24A
:1013A0000000C4F2FD404867059AD16E012060F349
:1013B0009131D166059AD16E60F38D21D16644F2E8
:1013C0000001CCF21C6101910021C4F2A021029124
:1013D0004EF6602103910490059800F08DFB05986E
:1013E00001A900F065FDFFE7032006B080BD000005
:1013F00080B588B007900798C06EC0F3832001289D
:1014000040F0CE80FFE70798C06E800800070028F4
:1014100040F0C680FFE70798C06E80090007A0B1C2
:10142000FFE70799C86E032262F38D20C86607990B
:10143000C86E20F47030C86607988168D1F800C083
:10144000042100231A46E047AAE00798C06EC0F3C3
:10145000833001460291012808D0FFE70298022854
:101460001CD0FFE70298032833D04BE0079AD16ED7
:10147000022060F39131D16644F20001C4F21C6194
:10148000039106900020C4F2F01004904EF6602004
:101490000590079803A900F00BFD81E0079AD16E33
:1014A000032060F39131D16644F20001C4F21C6163
:1014B000039106900020C4F2A02004904EF6602014
:1014C0000590079800F018FB079803A900F0F0FCBE
:1014D00066E00799C86E042262F39130C86644F250
:1014E0000000C4F21C600390022006900020C4F2A9
:1014F000F01004904EF660200590079803A900F0C4
:10150000D7FC4DE00799C86E022262F38D20C866B1
:101510000799C86E20F47030C8660798009090ED67
:10152000110AB8EEC00A10EE100A0EF053FA41ECA0
:10153000100B9FED1D1B53EC112B51EC100B0DF0FC
:1015400009FE41EC100B51EC100B0DF01DFD009944
:101550004867079800F0D0FA079800230193C36703
:1015600007988168D1F800C003211A46E047019826
:101570000799896F03910021C4F2202104910690FC
:10158000079890ED1E0A9FED0A1A20EE010ABCEEA4
:10159000C00A8DED050A079803A900F089FCFFE752
:1015A00008B080BD00BF00BF000000000080764092
:1015B00000803B4580B582B00190019940F22C40FB
:1015C000C2F2000000904FF6AC52C0F6000200F0EC
:1015D000BBF8009840F24011C2F2000100F0AAFAF4
:1015E000009840F21411C2F2000100F003F800204C
:1015F00002B080BD83B0019000910198002861D0B5
:10160000FFE7009800285DD0FFE7019940F26550A0
:10161000C0F60100C8600198006100980199486116
:10162000019940F29810C2F2000088610099486860
:101630008861009A92F8280000F00C01012000FA5D
:1016400001F1D161009A516892F8283003F00C033F
:10165000194434311162009A1168D160009991F8EF
:10166000282002F003029200904008610099086867
:1016700091F8282002F0030200EB82003430486128
:1016800000984168486C40F4004048640098016844
:10169000486C40F40040486400988168086840F055
:1016A0000100086000984168086840F00100086087
:1016B00000980168086840F00100086000208DF87B
:1016C0000B0003E002208DF80B00FFE79DF80B00F4
:1016D00003B0704780B582B001900199C86E086769
:1016E000019800F053FA019800F0DEF8019991F8A2
:1016F0006820C86E62F30100C866019890ED110A77
:1017000090ED1D1AB8EEC00A80EE010A80ED1F0AA6
:101710000198C06E8008000720B9FFE70198FFF725
:1017200067FEFFE70198C16E006F884209D0FFE7AE
:1017300001988168D1F800C0072100231A46E047CC
:10174000FFE702B080BD000084B0029001910092DA
:101750000298C0B3FFE70098A8B3FFE7029940F2F0
:101760005B50C0F60100086001980299486000983B
:1017700002998860029948F20000C4F2FD4048676F
:1017800002990020C4F21010886702990020C4F268
:10179000201048620299886202990020C4F2042055
:1017A000C8610299086202990020C4F28C20C862C4
:1017B00002994FF64840C0F60000C1F888000020AA
:1017C0008DF80F0003E008208DF80F00FFE79DF86B
:1017D0000F0004B07047000080B582B00190009106
:1017E00001990020C86400988068019908650199F2
:1017F000486A4863009800680199886300984068C7
:10180000019988640098C0680199C863019890EDB7
:10181000070A9FED1B1A80EE010A80ED0C0A019960
:10182000C86E20F47070C8660199C86E20F03C0044
:10183000C86601988169CA68012190470199486486
:101840000198406C00994968884207DAFFE70199DE
:10185000C86E012262F38500C8660EE00198406CF4
:1018600000994968884207DDFFE70199C86E0222A6
:1018700062F38500C866FFE7FFE7002002B080BD85
:1018800000007A4480B582B0019001988169D1F856
:1018900008C0022100231A46E0470199C86E20F0D3
:1018A0003C00C86602B080BD80B582B0019001984E
:1018B0008169CA680121904701994864019890F8AC
:1018C00068004008C007C8B1FFE70198C06E8008F3
:1018D000000790B1FFE70198FFF7D4FF0199C86EA8
:1018E000022262F38910C86601988168D1F800C0AD
:1018F000062100231A46E047FFE7A7E00198C06EE3
:101900008008000708B9FFE7A0E0019890F8680098
:10191000C007E8B1FFE70198C06B01280BD0FFE7D3
:101920000198C06B032812D1FFE7019890F8690075
:10193000C00760B9FFE70198FFF7A4FF019881682D
:10194000D1F800C0022100231A46E047FFE717E064
:101950000198C06B022812D1FFE7019890F8690046
:10196000C00760B1FFE70198FFF78CFF019881681D
:10197000D1F800C0022100231A46E047FFE7FFE745
:101980000198C06EC0F38300012806D1FFE70199DA
:10199000486C896C88420DDAFFE70198C06EC0F38D
:1019A0008300022812D1FFE70199486C896C8842B4
:1019B0000CDCFFE70198FFF765FF01988168D1F81B
:1019C00000C0012100231A46E0473FE00198C06EA5
:1019D00080080007D0B3FFE70199C86C0130C864E4
:1019E0000199C86C096D884212D3FFE70198FFF78F
:1019F00049FF0199C86E012262F38910C8660198F7
:101A00008168D1F800C0052100231A46E0471DE097
:101A1000019890ED0D0A90ED0E1AB4EE410AF1EE28
:101A200010FA12DAFFE7019890ED0C1A90ED0D0A0A
:101A300030EE010A80ED0D0A01988169D1F808C0E5
:101A4000032100231A46E047FFE7FFE702B080BD0D
:101A500080B586B004900391049840690290049880
:101A60000399FFF7B9FE0498C06EC0F383000146E6
:101A70000091012804D0FFE70098022805D009E072
:101A8000029901F10C00486208E0029901F1180086
:101A9000486203E002208DF8170026E0049890EDDC
:101AA0000D0A9FED141A80EE010A0298406A006840
:101AB00090ED0B1AB8EE411A20EE010ABDEEC00AF5
:101AC00010EE100AADF80600BDF806000299496A4A
:101AD000896808600298406A01684268086A104391
:101AE000086200208DF81700FFE79DF8170006B088
:101AF00080BD00BF0000C84280B584B0029002984B
:101B0000C06E8008000768B9FFE7029881690B6919
:101B1000012100220192984701980299C8678DF827
:101B20000F0003E003208DF80F00FFE79DF80F0082
:101B300004B080BD83B0019000910198F0B1FFE73F
:101B40000098D8B1FFE7019940F27D50C0F601003E
:101B500048650198806500980199C865019949F226
:101B60005970C0F60000086601994BF65550C0F652
:101B70000000486600208DF80B0003E002208DF87D
:101B80000B00FFE79DF80B0003B0704780B582B0F3
:101B900001900198016E884702B080BD83B001902A
:101BA00000910198C06E8008000750B9FFE70199C5
:101BB000009A106852688A67486700208DF80B0009
:101BC00003E003208DF80B00FFE79DF80B0003B046
:101BD0007047000080B583B001900091019818B162
:101BE000FFE7009820B9FFE708208DF80B0021E0FF
:101BF0000198C06E80080007C0B9FFE70199DDF8C1
:101C000000E0DEF80000DEF80420DEF80830DEF840
:101C10000CC0DEF810E0C1F82CE0C1F828C04B621F
:101C20000A62C86100208DF80B0003E003208DF8E4
:101C30000B00FFE79DF80B0003B080BD0000000023
:101C400080B596B00DAA079214908DF84F109DF8AC
:101C50004F00142804DBFFE70A208DF857000EE13F
:101C60009DF84F000DF03BFC41EC100B9FED861BE7
:101C700053EC112B51EC100B0DF0C0FC41EC100B90
:101C80008DED000B1498806F0DF0A4FE9DED001BF0
:101C900041EC100B51EC110B53EC102B0DF0A6F98D
:101CA00041EC100B51EC100B0DF06EF912901498E2
:101CB000C06F119011980DF08DFE41EC100B51EC9E
:101CC000100B9FED730B53EC102B039302920DF04E
:101CD00041FA41EC100B51EC100B0DF0D1FB1090C0
:101CE00010980DF0FCFB029A039B41EC100B51EC99
:101CF000100B0DF083FC41EC100B8DED040B1198D3
:101D00000DF068FE9DED041B41EC100B53EC112B04
:101D100051EC100B0DF070FD41EC100B51EC100B61
:101D20000DF032F901460798119190ED040AB5EED5
:101D3000400AF1EE10FA0ADAFFE7079890ED040A7C
:101D40009FED591A30EE010A80ED040AFFE70120E9
:101D50000F9012980DF03EFE41EC100B9FED4C1BC6
:101D600053EC112B51EC100B0DF07BFEA8B9FFE7E3
:101D700012980DF02FFE41EC100B9FED471B53EC1A
:101D8000112B51EC100B0DF031F941EC100B51EC13
:101D9000100B0DF0F9F81290FFE7079890ED050A87
:101DA00090ED041A30EE410A10EE100A0DF012FE0A
:101DB00041EC100B51EC100B9FED390B52EC103B2A
:101DC000D20F62F3DF7141EC100B51EC100B0DF0F0
:101DD000DBF8014607980E9190ED010A9FED331A4A
:101DE000B4EE410AF1EE10FA10DDFFE7079890ED2E
:101DF000011A9FED2D0A30EE410A80ED010A90EDA7
:101E0000010AB1EE400A80ED010AFFE7079890ED64
:101E1000040A90ED051AB4EE410AF1EE10FA04DD61
:101E2000FFE74FF0FF300F90FFE7079890ED020AB1
:101E3000B8EEC00A90ED011A20EE010A149991ED56
:101E40001F1A30EE010A80ED000A0D9809901498CF
:101E5000C06A0A904EF660200B9000200C901498F7
:101E600009A900F025F88DF823009DF84F0014997A
:101E700081F885009DF823008DF85700FFE79DF855
:101E8000570016B080BD00BF0000000000003240C7
:101E9000000000000080764000000000008076C056
:101EA00000000000000000000000B44300003443C4
:101EB00080B588B006900591069818B1FFE705989F
:101EC00020B9FFE708208DF81F003FE00698C06E9C
:101ED0008008000720B1FFE703208DF81F0035E0E0
:101EE0000698016E8847069890F868004008C00779
:101EF00020B1FFE701208DF81F0027E00698FFF7CB
:101F0000C1FC059800680699C1F8800005984068F2
:101F10000190059890ED000A069890ED1D1A20EEAC
:101F2000010ABDEEC00A8DED020A05988068039093
:101F30000598C068049006988169D1F808C001210D
:101F400001AA0023E0478DF81F00FFE79DF81F005E
:101F500008B080BD80B582B001900198FFF792FC77
:101F60000198C06EC0F3832001280CD1FFE70199CE
:101F7000C86E042262F38D20C8660199C86E20F4F1
:101F80007030C866FFE7002002B080BD10B582B097
:101F900001900091009810B3FFE70098016840F2AB
:101FA0006410C2F200001322FEF708FAB8B9FFE786
:101FB0000199009C20686268A368D4F80CC0D4F82A
:101FC00010E06469C1F8A840C1F8A4E0C1F8A0C05D
:101FD000C1F89C30C1F89820C1F89400FFE70520B3
:101FE00002B010BD80B586B0059005988068049059
:101FF0000598406803900498B0F90610B0F90800FD
:10200000884207DBFFE70499C88808810499FF200C
:1020100048710EE00498B0F90800B0F1FF3F07DC0A
:10202000FFE7049900200881049901204871FFE727
:10203000FFE7049890ED030AB0F9080001EE100ADA
:10204000B8EEC11A20EE010ABDEEC00A10EE100A69
:102050008DF80800049890ED040AB0F9080001EE2C
:10206000100AB8EEC11A20EE010ABDEEC00A10EE49
:10207000100A8DF80900049890ED050AB0F90800DF
:1020800001EE100AB8EEC11A20EE010ABDEEC00A38
:1020900010EE100A8DF80A00049991F905200889BC
:1020A00010440881039901F15000B1F8AC309DF85B
:1020B0000A108DF80610BDF80810ADF8041001994B
:1020C00000220CF017F806B080BD000080B592B079
:1020D000119011984FF6A451C0F6000100F05EF97E
:1020E00032200390ADF84200BDF8420040F6EC0308
:1020F000C2F2010303EB400040F2C842C2F2000208
:102100000992C2F8B80002F108000690C0210291BD
:10211000A2F8BC10BDF842C00CF1C00CADF842C032
:10212000BDF842C003EB4C03C2F8703102F1C003AA
:102130000793A2F8741140F25801C2F20001019114
:1021400000F076F90199079800F072F90299099A5E
:102150000398ADF84200BDF8420040F65243C2F287
:10216000010303EB4000C2F8280202F5BC70A2F89C
:102170002C12BDF842C00CF1C00CADF842C0BDF845
:1021800042C003EB4C03C2F8E03202F50C73059336
:10219000A2F8E41240F26C01C2F20001049100F0D6
:1021A00047F90499059800F043F906984FF6205135
:1021B000C0F6000100F094F807984FF65051C0F6B1
:1021C000000100F08DF809984FF62E31C0F600019D
:1021D0008A788DF83E200988ADF83C109DF83E10B5
:1021E0008DF83A10BDF83C10ADF838100E99583003
:1021F00000220A92082308930BF07CFF089B0A9A9E
:1022000009989DF83E108DF83610BDF83C10ADF8D9
:1022100034100D9900F588700BF06CFF089B0A9A3A
:1022200009989DF83E108DF83210BDF83C10ADF8BD
:1022300030100C9900F5E4700BF05CFF089B0A9AD3
:1022400009989DF83E108DF82E10BDF83C10ADF8A1
:102250002C100B9900F520700BF04CFF0A9812B06F
:1022600080BD000080B582B08DF807009DF80700A2
:102270008DF8060000208DF80500FFE79DF8061098
:102280000020009041B1FFE79DF8051000200429CF
:10229000B8BF01200090FFE70098C007E8B1FFE752
:1022A0009DF80600C00768B1FFE79DF8050040F201
:1022B000C842C2F20002B82110FB012068300BF0C6
:1022C000D7FEFFE79DF8060040088DF806009DF850
:1022D000050001308DF80500D0E702B080BD000098
:1022E00010B584B002900191029800283FD0FFE71A
:1022F0000198E0B3FFE7029901F160000BF084FE62
:10230000029940F25410C2F200000866029901F1ED
:1023100094008866029940F26410C2F20000C1F88D
:1023200094000299019C20686268A368D4F80CC0EC
:10233000D4F810E06469C1F8A840C1F8A4E0C1F87D
:10234000A0C0C1F89C30C1F89820C1F8940002994F
:1023500041F6E570C0F60000C86602994BF60940E8
:10236000C0F60000486700208DF80F0003E0012050
:102370008DF80F00FFE79DF80F0004B010BD0000BE
:1023800080B582B003200190FFF76CFF01984FF4F5
:102390007A7100F0AFF902B080BD000083B0029006
:1023A000019140F2C841C2F2000140F23450C0F63F
:1023B00001000860029848604FF6D040C0F6000067
:1023C000C1F8080300208DF80300FFE79DF8030023
:1023D000032829DCFFE79DF80300B82100FB01FC7E
:1023E00040F2C840C2F2000000F1080240F24B5334
:1023F000C0F6010342F80C309DF8033013FB0123B3
:10240000586001989DF8033013FB012398609DF8F4
:10241000030010FB012181F8AE00FFE79DF80300E7
:1024200001308DF80300D1E7002003B070470000B1
:1024300080B588B0069005910698002867D0FFE720
:102440000598002863D0FFE7059840680490059838
:10245000006803900398343002900399086820F0D4
:10246000010008600398406CC00BC00730B9FFE75B
:102470000399486C40F400404864FFE70598007AEF
:102480008100012000FA01F20399086A10430862F2
:1024900002990598027A002041F822000399C86841
:1024A00040F48070C8600399086840F0010008603B
:1024B0000499086820F0010008600699B1F8B4009A
:1024C0004AF6AB22CAF6AA22A0FB02200009A1F814
:1024D000AC000699B1F8AC0000EB4000C000A1F8D8
:1024E000B400069901F15000059AD1F8B030B1F866
:1024F000B4E0EC46CCF804E0CCF8003040F23823ED
:10250000C2F200030BF06EFE8DF81F0003E0012005
:102510008DF81F00FFE79DF81F0008B080BD000088
:1025200080B586B004919DF812108DF81610BDF894
:102530001010ADF814108DF80F009DF80F008DF8F5
:102540000E0000208DF80D00FFE79DF80E10002012
:10255000019041B1FFE79DF80D1000200429B8BF9C
:1025600001200190FFE70198C007002845D0FFE750
:102570009DF80E00C007A8B3FFE79DF80D0040F2DC
:10258000C842C2F20002B82110FB012090F8880076
:10259000C00768B1FFE79DF80D0040F2C842C2F2E3
:1025A0000002B82110FB012068300BF08FFDFFE71F
:1025B0009DF80D0040F2C842C2F20002B82110FBA3
:1025C000012101F15800B1F8B4309DF816108DF8D2
:1025D0000A10BDF81410ADF80810029900220BF093
:1025E00089FDFFE79DF80E0040088DF80E009DF86C
:1025F0000D0001308DF80D00A7E7002006B080BD6A
:1026000080B586B08DF816008DF815109DF816006F
:102610008DF8140000208DF813009DF81500012896
:1026200060D8FFE7FFE79DF814100020039041B148
:10263000FFE79DF8131000200429B8BF0120039084
:10264000FFE70398C007002848D0FFE79DF8140073
:10265000C007C0B3FFE79DF8130040F2C841C2F2C3
:10266000000101F108020192B821029110FB012042
:1026700060300BF02BFD019A02999DF8130010FBBE
:1026800001209DF8152040F27811C2F2000100915E
:1026900051F82210FFF724FE0099019B029A9DF841
:1026A000130010FB02309DF8152051F82210FFF79F
:1026B0006DFC019A02999DF8130010FB0120603017
:1026C0000BF0E6FCFFE79DF8140040088DF81400BD
:1026D0009DF8130001308DF81300A4E700208DF859
:1026E000170003E001208DF81700FFE79DF81700A1
:1026F00006B080BD80B584B08DF80F0002919DF8C2
:102700000F008DF8070000208DF80600FFE79DF808
:1027100007100020009041B1FFE79DF8061000204F
:102720000429B8BF01200090FFE70098C00760B3FC
:10273000FFE79DF807008007E0B1FFE79DF806007E
:1027400040F2C842C2F20002B82110FB012058300A
:102750000BF022FD68B9FFE79DF8060040F2C84281
:10276000C2F20002B82110FB012058300BF06AFEC3
:10277000FFE7FFE79DF8070080088DF807009DF848
:10278000060002308DF80600C1E7002004B080BDCD
:1027900080B582B001900198806B00900098806BAA
:1027A000406D022805D0FFE70099012081F825003F
:1027B000FFE7009800F0B2FF02B080BD80B584B0A2
:1027C0000390002002900398806B01900198806A2A
:1027D00000283FD0FFE70198806B0068006800F494
:1027E000002002900198806AC007B0B9FFE7029804
:1027F00098B1FFE70198806B0068C0680290019A69
:10280000906B0299D26A01EBC201002201F010FB29
:102810000199886A013888621BE00198806B006822
:1028200000680003002813D4FFE70198806B00685C
:1028300000690290019A906B0299D26A01EBC20181
:10284000012201F0F5FA0199886A01388862FFE7F0
:10285000FFE727E00198806B00680068000300280C
:1028600006D5FFE70199486B896B0968C86018E0D5
:102870000198806B006800680003002810D4FFE70F
:102880000198406B029002980199C96A00EB81009F
:102890000199896B096808610199086B8862FFE7F3
:1028A000FFE7FFE70198806A0199096B884213D11D
:1028B000FFE701980168C86840F00100C86001980E
:1028C000006800688007002805D5FFE7019901200E
:1028D00081F82500FFE7FFE704B080BD80B541F235
:1028E0000800C2F2010000F021FF80BD80B541F276
:1028F0002820C2F2010003F063FB80BD80B541F2E5
:102900008820C2F2010003F05BFB80BD80B541F27C
:102910000810C2F2010003F053FB80BD80B541F204
:102920006810C2F2010003F04BFB80BD80B541F29C
:10293000C810C2F2010003F043FB80BD80B541F234
:102940004800C2F2010003F03BFB80BD80B541F2BC
:10295000A800C2F2010003F033FB80BD82B00190F9
:102960000198007810384AF6AB21CAF6AA21A0FBDC
:1029700001100009009000994FF61850C0F60000B1
:10298000405C0199C8650098042807D3FFE70199C6
:102990000868042262F30900886506E00199086866
:1029A00040F2FF3290438865FFE70198806D02B0E6
:1029B0007047000086B0059000208DF81300059840
:1029C000806A03900598806910BBFFE70398029026
:1029D00003281BD80299DFE801F0020D02180598C0
:1029E00090F82F00C00720B1FFE701208DF81300F9
:1029F000FFE70CE00598C06AB0F1C07F04D1FFE7A3
:102A000001208DF81300FFE701E000E0FFE745E05B
:102A100005988069B0F5005F25D1FFE70398019024
:102A200003281ED80199DFE801F0020602110120F7
:102A30008DF8130016E0059890F82F00C00720B11C
:102A4000FFE701208DF81300FFE70BE00598C06A4F
:102A5000B0F1C07F04D1FFE701208DF81300FFE73C
:102A600000E0FFE719E003980090032804D3FFE794
:102A70000098032804D00EE001208DF813000BE02D
:102A8000059890F82F00C00720B1FFE701208DF8CE
:102A90001300FFE700E0FFE7FFE7FFE79DF8130003
:102AA00006B0704784B003900291019200930098A1
:102AB00003990968486003988068402809D1FFE7B6
:102AC0000198039909688860029803990968C860A9
:102AD00008E00298039909688860019803990968D9
:102AE000C860FFE704B0704784B003900291019280
:102AF000009303980168086820F48020086000981B
:102B000003990968486003988068402809D1FFE765
:102B10000198039909688860029803990968C86058
:102B200008E0029803990968886001980399096888
:102B3000C860FFE704B0704781B00090009801685A
:102B40000269086A9043086200984168C269086A8D
:102B50009043086201B0704781B00090009801680E
:102B6000C268086A90430862009841688269086AEE
:102B70009043086201B0704781B0009000980168EE
:102B8000C268086A90430862009841688269086ACE
:102B90009043086201B0704781B0EFF3108072B6C5
:102BA0000090FFE7FEE7000084B003908DF80B1063
:102BB00001920093FFE704B07047000080B586B033
:102BC00005908DF813100392029305988068019088
:102BD0009DF813000146009120B1FFE700980128FD
:102BE00007D00DE0059814300399029A09F0C2F954
:102BF00006E0059814300399029A09F0BBF9FFE743
:102C000006B080BD84B003908DF80B100192009344
:102C1000FFE704B07047000080B586B005908DF8DE
:102C20001310039202930598006901909DF8130018
:102C3000012825D1FFE701980068C068C009C007D6
:102C4000E8B1FFE7019800680068C009C007B0B1AB
:102C5000FFE70198C16C006D884208D0FFE701983A
:102C600040300BF0DBFC01990968486006E00198F0
:102C70000168C86820F08000C860FFE7FFE700E057
:102C8000FFE706B080BD000080B584B003908DF8EA
:102C90000B10019200939DF80B00012808D1FFE76B
:102CA000039A02F13000516ED26E0CF0EDF800E0A4
:102CB000FFE704B080BD000085B004908DF80F10D0
:102CC000029201930498006900909DF80F0001287A
:102CD00001D1FFE700E0FFE705B0704784B0039043
:102CE0008DF80B100192009304B0704784B00390EC
:102CF0008DF80B1001920093FFE704B070470000BD
:102D000080B586B005908DF81310039202939DF85C
:102D10001300072818D1FFE70598D0F88C0090B170
:102D2000FFE70599D1F88C00406901F16C036A4610
:102D30000421116043F26751C7F6531142F2117238
:102D40000BF074FFFFE700E0FFE706B080BD000076
:102D500084B003908DF80B1001920093FFE704B04C
:102D60007047000080B588B007908DF81B10059261
:102D700004930798806D0290079890F854008DF89E
:102D80000C00079890F828008DF80D009DF81B00A6
:102D9000013801460191052859D80199DFE801F071
:102DA000035718572D420798406E80B1FFE70798E8
:102DB000406E40696A460821116042F23541C5F211
:102DC000885142F2117202AB0BF030FFFFE73FE097
:102DD0000798406E80B1FFE70798406E40696A46E9
:102DE0000821116042F23541C5F2885142F2127257
:102DF00002AB0BF01BFFFFE72AE00798406E80B1A3
:102E0000FFE70798406E40696A460821116042F268
:102E10003541C5F2885142F2137202AB0BF006FF46
:102E2000FFE715E00798406E80B1FFE70798406E16
:102E300040696A460821116042F23541C5F2885165
:102E400042F2147202AB0BF0F1FEFFE700E0FFE785
:102E500008B080BD85B004908DF80F1002920193E8
:102E6000049840690090FFE705B0704784B0039074
:102E70008DF80B100192009304B0704785B0049058
:102E80008DF80F1002920193049840690090FFE7BB
:102E900005B0704784B003908DF80B100192009339
:102EA000FFE704B07047000084B003908DF80B106A
:102EB00001920093FFE704B07047000080B582B034
:102EC00001900198006800900198006900997431A0
:102ED00008220BF0C3FC02B080BD000080B588B0B2
:102EE00007900798006806900698C06E00900698B4
:102EF000C06F01900698D0F8800002900698406B51
:102F000003900698C06C049006988169CA680121F4
:102F10009047059007980069694618220BF09EFCBF
:102F200008B080BD82B0009000980068006A0099E7
:102F30000969084204D0FFE701208DF807000FE07F
:102F400000984068006A0099C969084204D0FFE708
:102F500002208DF8070003E000208DF80700FFE74E
:102F60009DF8070002B0704780B582B001900198CB
:102F7000006800900198006900991C3114220BF040
:102F80006DFC02B080BD000080B582B00190019858
:102F9000006800900198006900991C310C220BF028
:102FA0005DFC02B080BD000080B586B0059005983C
:102FB000006804900498C06F01900498D0F88000D5
:102FC000029004988169CA6801219047039005988E
:102FD000006901A90C220BF041FC06B080BD000085
:102FE00080B582B0019000208DF80300FFE79DF8C6
:102FF0000300032816DCFFE7019800699DF8031021
:1030000040F2C843C2F20003B82211FB023154312E
:1030100004220BF023FCFFE79DF8030001308DF83C
:103020000300E4E702B080BD80B582B00190019852
:10303000006800900198006900996C3104220BF03F
:103040000DFC02B080BD000080B584B003900398F1
:10305000006802900298806D0090029890F85400E9
:103060008DF80400029890F828008DF80500039868
:103070000069694608220BF0F1FB04B080BD000036
:1030800080B582B0019001980068009001980069B5
:103090000099A83108220BF0E1FB02B080BD0000CE
:1030A00080B582B0019000208DF80300FFE79DF805
:1030B0000300032816DCFFE7019800699DF8031060
:1030C00040F2C843C2F20003B82211FB0231A03122
:1030D00001220BF0C3FBFFE79DF8030001308DF8E0
:1030E0000300E4E702B080BD82B001908DF80310C8
:1030F000002002B07047000082B001908DF80310EC
:10310000FFE7002002B0704782B001908DF80310F5
:10311000002002B07047000085B003908DF80B10BE
:103120000398C06801909DF80B00014600910228A9
:1031300004D0FFE70098032805D009E001988068D3
:103140008068049007E001988068C068049002E0FD
:1031500000200490FFE7049805B0704780B586B062
:1031600004908DF80F100498006902909DF80F00EC
:1031700001460191012808D0FFE70198022816D0E6
:10318000FFE70198032817D01CE002980068C16887
:10319000022000EA91120499087B00F0E10010443B
:1031A00008730498007BC0F3430005900DE002987B
:1031B000406D0130059008E0029840300BF044FA71
:1031C000059002E000200590FFE7059806B080BD5D
:1031D00085B003908DF80B100398006901909DF85D
:1031E0000B0002380146009108282CD80099DFE82E
:1031F00001F0161E09220512261A0D000198007F03
:10320000049023E00198807E04901FE0019890F8DC
:10321000200004901AE00198407F049016E0019885
:10322000007E049012E00198C07F04900EE00198A7
:10323000407E04900AE00198C07E049006E0019868
:10324000807F049002E000200490FFE7049805B01E
:103250007047000087B005908DF813100598406BFB
:1032600003900398406802909DF813000146019175
:1032700020B1FFE70198012805D01FE003980068FE
:10328000C06A06901EE0029841680020009031B1AB
:10329000FFE70298006800F001000090FFE7009847
:1032A00000F001020599087A00F01F0040EA421080
:1032B00008720598007A4009069003E04FF0FF304D
:1032C0000690FFE7069807B07047000080B586B00B
:1032D00004908DF80F100498406902909DF80F003B
:1032E00001460191012804D0FFE70198022805D08A
:1032F00009E002988068406A059008E00298FFF7AC
:1033000011FE059003E0FFE700200590FFE7059818
:1033100006B080BD82B001908DF80310FFE7002059
:1033200002B0704782B001908DF80310FFE70020D3
:1033300002B0704785B00390029100200190FFE732
:10334000039890F83C00012804D1FFE702208DF893
:10335000130007E10399012081F83C00FFE7FFE734
:10336000029800680A281CD3FFE70298008800EB47
:103370004000A0F11E01072000FA01F20398016845
:10338000C8689043C86002998868098801EB4101C8
:103390001E3900FA01F203980168C8681043C8603A
:1033A00018E00298008800EB4001072000FA01F2C3
:1033B0000398016808699043086102998868098840
:1033C00001EB410100FA01F203980168086910431A
:1033D0000861FFE70298406806281BD8FFE70298BB
:1033E000406800EB8000411F1F2000FA01F20398A3
:1033F0000168486B9043486302990888496801EB6B
:103400008101053900FA01F203980168486B104305
:1034100048633DE0029840680C281CD8FFE70298FA
:10342000406800EB8000A0F123011F2000FA01F2A8
:1034300003980168086B90430863029908884968FB
:1034400001EB8101233900FA01F203980168086B4E
:10345000104308631BE00298406800EB8000A0F175
:1034600041011F2000FA01F203980168C86A9043E5
:10347000C86202990888496801EB8101413900FA64
:1034800001F203980168C86A1043C862FFE7FFE7CA
:1034900042F20030C4F2010000900398006842F24A
:1034A0000001C4F20101884210D1FFE702980068D0
:1034B00012280BD1FFE70099486820F4000048600B
:1034C0000099486840F480004860FFE7039800686E
:1034D00042F20001C4F20101884239D1FFE70298AB
:1034E00000681221C1F20001884205D0FFE702986E
:1034F000006811282CD1FFE70099486820F480006B
:1035000048600099486840F40000486002980068EC
:103510001221C1F20001884219D1FFE740F22420B4
:10352000C2F2000000684DF68361C4F21B31A0FBBB
:103530000110800C00EB800040000190FFE7019833
:1035400020B1FFE7019801380190F8E7FFE7FFE7B6
:10355000FFE70399002081F83C00FFE700208DF889
:103560001300FFE79DF8130005B0704780B584B0E5
:10357000029000208DF80700029820B9FFE7012093
:103580008DF80F0042E00298806A0121C0F60071B8
:10359000884201D0FFE7FFE70298006C50B9FFE7CF
:1035A000029800F037F8029900204864029981F8E7
:1035B0003C00FFE70298006CC006002817D4FFE724
:1035C0000298006C40F0020020F4885002990864D0
:1035D0000298FDF719F80299002048640298006CDF
:1035E00040F0010020F002000299086403E001208D
:1035F0008DF80700FFE7FFE70299002081F83C0003
:10360000FFE79DF807008DF80F00FFE79DF80F001A
:1036100004B080BD80B588B007900020069005906A
:103620000490039002900798006842F20001C4F2EF
:10363000010188422FD1FFE7FFE70020019043F608
:103640004400C4F20200016841F480710160006826
:1036500000F4807001900198FFE7FFE700200090E0
:1036600043F63000C4F20200016841F0010101603C
:10367000006800F0010000900098FFE7022002902F
:1036800003200390002004900020C4F2020002A94D
:1036900002F0AAFFFFE708B080BD000080B582B04D
:1036A0000090009820B9FFE701208DF8070011E095
:1036B0000098407938B9FFE7009900200871009818
:1036C00000F00CF8FFE700990120487100208DF808
:1036D0000700FFE79DF8070002B080BD82B00190AF
:1036E0000198006843F20001C4F20201884212D13D
:1036F000FFE7FFE70020009043F63000C4F202002D
:10370000016841F480510160006800F4805000902D
:103710000098FFE7FFE702B07047000081B000901B
:1037200001B0704781B0009001B0704780B582B0A1
:10373000019001980068006900909DF80000400722
:10374000002818D5FFE70198016804204861019A14
:10375000D16B41F00201D163019981F825000198F4
:10376000816B42F29170C0F6000008650198806B91
:1037700002F004FCFFE79DF800008007002819D53F
:10378000FFE701980168022048610199C86B40F089
:103790000100C8630199042081F825000198816B1C
:1037A00042F29170C0F6000008650198806B02F04B
:1037B000E5FBFFE79DF80000C006002808D5FFE7FD
:1037C0000198016810204861019800F08BF8FFE72C
:1037D0009DF800000007002808D5FFE70198016860
:1037E00008204861019800F01FFBFFE79DF80000EA
:1037F000C007C0B1FFE70198006800688007002893
:1038000007D5FFE701980168C86820F01E00C8606E
:10381000FFE701980168C86820F00100C8600198BE
:10382000FFF780FFFFE702B080BD000080B584B0E5
:103830000290029820B9FFE701208DF80F004DE0BB
:10384000029890F8250058B9FFE70299002081F806
:103850002400029800F04AF8029800F047F8FFE7C9
:103860000299022081F8250002980168086840F654
:10387000F87290430860029A0192D2F814E011683D
:1038800050689368D2F80CC040EA0E0040EA0C0081
:10389000D2F810C040EA0C00184393691843126A2A
:1038A000024308681043086002984068102805D158
:1038B000FFE702980168C0698861FFE70298016824
:1038C000C86840F01E00C86002990020C863029AD0
:1038D000012182F825108DF80F00FFE79DF80F00F9
:1038E00004B080BD81B0009001B0704780B594B045
:1038F000139000201290119010900F900E9013983A
:1039000000680021C5F20501884240F01C81FFE7F4
:10391000FFE700200D9043F63400C4F20200016876
:1039200041F001010160006800F001000D900D9868
:10393000FFE7FFE700200C9043F63000C4F20200DE
:10394000016841F010010160006800F010000C9067
:103950000C98FFE7FFE700200B9043F63000C4F21D
:103960000200016841F001010160006800F00100FF
:103970000B900B98FFE7FFE700200A9043F630001A
:10398000C4F20200016841F004010160006800F027
:1039900004000A900A98FFE7FFE70020099043F629
:1039A0003000C4F20200016841F0080101600068C3
:1039B00000F0080009900998FFE7FFE70020089051
:1039C00043F63000C4F20200016841F0400101609A
:1039D000006800F0400008900898FFE7FFE700202B
:1039E000079043F63000C4F20200016841F0020182
:1039F0000160006800F0020007900798FFE71020C0
:103A00000E90022002900F900020059010901190CF
:103A10000D200390129041F20000C4F202000EA9A2
:103A2000049102F0E1FD029B03980499059A4FF07E
:103A3000500CCDF838C00F931092119212900020C4
:103A4000C4F2020002F0D0FD029B03980499059A8B
:103A50004FF0C00CCDF838C00F9310921192129015
:103A600040F60000C4F2020002F0BEFD029B039883
:103A70000499059A4FF0080CCDF838C00F931092B6
:103A80001192129040F60040C4F2020002F0ACFD28
:103A9000029B03980499059A4FF4606CCDF838C0E6
:103AA0000F9310921192129041F60000C4F202009E
:103AB00002F09AFD029B03980499059A4FF4407C0A
:103AC000CDF838C00F9310921192129040F200403E
:103AD000C4F2020002F088FD059941F24800C2F2EA
:103AE0000100069046F22842C4F2020202604FF042
:103AF000007242608160C1604FF4806202614FF4E5
:103B0000805242614FF480428261C1610162416230
:103B100002F0E6FB18B1FFE7FFF73EF8FFE7FFE72B
:103B2000139841F24801C2F201018163139888633E
:103B3000FFE74E2001900821002203F02DFD01989F
:103B400003F020FDFFE714B080BD000080B588B011
:103B5000069005910492039300200290FFE70698D7
:103B600090F82400012804D1FFE702208DF81F00FF
:103B700090E00699012081F82400FFE7FFE706990D
:103B8000022081F8250006980168086840F480400A
:103B9000086006980168086820F002000860059A2D
:103BA000069801680868104308600698816B42F225
:103BB000BD70C0F60000C8630698816B42F2917038
:103BC000C0F60000C8640698816B0020086506995D
:103BD000886206990863BDF80E0048B9FFE70698A9
:103BE0000168806B2831049A039B02F079FC41E064
:103BF0000698816B42F2BD70C0F6000048640699D9
:103C00000120886203980699C8620498069948635F
:103C1000FFE70698C06AB0F5803F0BD3FFE7069830
:103C2000C06A40080699C8620698806A40000699F2
:103C30008862EEE70698806A0238069988620698DC
:103C4000806A0699086304980699C96A00EB8100A6
:103C50000290DDF818C0DCF80010DCF838002831DC
:103C6000049A029BDCF82CC0EE46CEF800C000F0AF
:103C7000F5F8FFE706980168086840F00100086061
:103C8000FFE70699002081F82400FFE700208DF867
:103C90001F00FFE79DF81F0008B080BD80B584B00D
:103CA000029040F22420C2F200000068400842F274
:103CB0009341C9F24921A0FB011080080190002026
:103CC0008DF80300FFE7029890F82400012804D142
:103CD000FFE702208DF80F0042E00299012081F8F1
:103CE0002400FFE7FFE70299022081F825000298EF
:103CF0000168086820F001000860FFE70198411E94
:103D0000019148B9FFE70299C86B40F02000C863F1
:103D100003208DF8030007E0FFE7029800680068C1
:103D2000C0070028EAD1FFE702980168086820F47C
:103D3000804008600298806B02F0AAF80299C86B74
:103D4000C8630299012081F82500FFE7029900204D
:103D500081F82400FFE79DF803008DF80F00FFE7CE
:103D60009DF80F0004B080BD84B0029040F2242082
:103D7000C2F200000068400842F29341C9F24921B2
:103D8000A0FB01108008019000208DF80300FFE7E0
:103D9000029890F82400012804D1FFE702208DF852
:103DA0000F003CE00299012081F82400FFE7FFE7C3
:103DB000029890F82500022826D1FFE702990520F5
:103DC00081F8250002980168086820F00100086069
:103DD000FFE70198411E019168B9FFE70299C86B9E
:103DE00040F02000C8630299012081F825000320DB
:103DF0008DF8030007E0FFE7029800680068C0073D
:103E00000028E6D1FFE7FFE7FFE70299002081F8ED
:103E10002400FFE79DF803008DF80F00FFE79DF8F1
:103E20000F0004B07047000081B0009001B07047EF
:103E300083B0029001918DF803209DF8030028B90A
:103E4000FFE7019802990968C86004E001980299A7
:103E500009680861FFE7002003B0704780B5ADF541
:103E60006C7DDDF8B8C3EA90E991E892E793002011
:103E70008DF89B03EA988068802809D1FFE7EA99CA
:103E80004FF48070486501208DF8AF0301F0FBBF4F
:103E9000EA98C06B40B1FFE7EA98406C20B1FFE7B9
:103EA000EA98C06C40B9FFE7EA99402048650120D4
:103EB0008DF8AF0301F0E7BFFFE7EA9890F8340010
:103EC000012805D1FFE702208DF8AF0301F0DBBF29
:103ED000EA99012081F83400FFE7FFE7EA9890F8BB
:103EE0003500012841F0C087FFE7EA99022081F8F8
:103EF0003500EA9900204865EA980168086840F4AE
:103F000080200860E798EA9909680861EA98E999C9
:103F1000E89AEE9BFEF7C6FDEA98006846F2594122
:103F2000C4F202018842C0F0BF80FFE7EA9800684F
:103F300046F21001C4F20201884203D1FFE72020BB
:103F4000E590AAE0EA98006846F21041C4F2020146
:103F5000884203D1FFE72020E4909BE0EA980068C4
:103F600046F27001C4F20201884203D1FFE720202B
:103F7000E3908CE0EA98006846F27041C4F20201D6
:103F8000884203D1FFE72020E2907DE0EA980068B4
:103F900046F22801C4F20201884204D1FFE74FF43F
:103FA0000060E1906DE0EA98006846F22841C4F2B2
:103FB0000201884204D1FFE74FF40060E0905DE029
:103FC000EA98006846F28801C4F20201884204D1EE
:103FD000FFE74FF40060DF904DE0EA98006846F29A
:103FE0008841C4F20201884204D1FFE74FF4006027
:103FF000DE903DE0EA98006846F24001C4F202011A
:10400000884204D1FFE74FF40010DD902DE0EA98DC
:10401000006846F24041C4F20201884204D1FFE741
:104020004FF40010DC901DE0EA98006846F2A00111
:10403000C4F20201884204D1FFE74FF40010DB9084
:104040000DE0EA98016846F2A042C4F202024FF085
:104050000060914208BF4FF40010DB90FFE7DB984F
:10406000DC90FFE7DC98DD90FFE7DD98DE90FFE76E
:10407000DE98DF90FFE7DF98E090FFE7E098E190BF
:10408000FFE7E198E290FFE7E298E390FFE7E3982B
:10409000E490FFE7E498E590FFE7E59846F20C41ED
:1040A000C4F20201086055E2EA98006846F2B901DC
:1040B000C4F202018842C0F0C080FFE7EA980068BD
:1040C00046F21001C4F20201884203D1FFE720202A
:1040D000DA90AAE0EA98006846F21041C4F20201C0
:1040E000884203D1FFE72020D9909BE0EA9800683E
:1040F00046F27001C4F20201884203D1FFE720209A
:10410000D8908CE0EA98006846F27041C4F202014F
:10411000884203D1FFE72020D7907DE0EA9800682D
:1041200046F22801C4F20201884204D1FFE74FF4AD
:104130000060D6906DE0EA98006846F22841C4F22B
:104140000201884204D1FFE74FF40060D5905DE0A2
:10415000EA98006846F28801C4F20201884204D15C
:10416000FFE74FF40060D4904DE0EA98006846F213
:104170008841C4F20201884204D1FFE74FF4006095
:10418000D3903DE0EA98006846F24001C4F2020193
:10419000884204D1FFE74FF40010D2902DE0EA9856
:1041A000006846F24041C4F20201884204D1FFE7B0
:1041B0004FF40010D1901DE0EA98006846F2A0018B
:1041C000C4F20201884204D1FFE74FF40010D090FE
:1041D0000DE0EA98016846F2A042C4F202024FF0F4
:1041E0000060914208BF4FF40010D090FFE7D098D4
:1041F000D190FFE7D198D290FFE7D298D390FFE714
:10420000D398D490FFE7D498D590FFE7D598D6906F
:10421000FFE7D698D790FFE7D798D890FFE7D898D0
:10422000D990FFE7D998DA90FFE7DA9846F208418B
:10423000C4F202010860CF908AE1EA98006846F271
:104240005901C4F202018842C0F0C080FFE7EA9839
:10425000006846F21001C4F20201884203D1FFE770
:104260002020CE90AAE0EA98006846F21041C4F2FD
:104270000201884203D1FFE72020CD909BE0EA981D
:10428000006846F27001C4F20201884203D1FFE7E0
:104290002020CC908CE0EA98006846F27041C4F28D
:1042A0000201884203D1FFE72020CB907DE0EA980D
:1042B000006846F22801C4F20201884204D1FFE7F7
:1042C0004FF40060CA906DE0EA98006846F2284119
:1042D000C4F20201884204D1FFE74FF40060C990A4
:1042E0005DE0EA98006846F28801C4F20201884263
:1042F00004D1FFE74FF40060C8904DE0EA980068F1
:1043000046F28841C4F20201884204D1FFE74FF42B
:104310000060C7903DE0EA98006846F24001C4F2B0
:104320000201884204D1FFE74FF40010C6902DE04F
:10433000EA98006846F24041C4F20201884204D182
:10434000FFE74FF40010C5901DE0EA98006846F2C0
:10435000A001C4F20201884204D1FFE74FF400102B
:10436000C4900DE0EA98016846F2A042C4F202024D
:104370004FF00060914208BF4FF40010C490FFE777
:10438000C498C590FFE7C598C690FFE7C698C79048
:10439000FFE7C798C890FFE7C898C990FFE7C9989A
:1043A000CA90FFE7CA98CB90FFE7CB98CC90FFE785
:1043B000CC98CD90FFE7CD98CE90FFE7CE9846F20F
:1043C0000C01C4F202010860C390BEE0EA980068E4
:1043D00046F21001C4F20201884203D1FFE7202017
:1043E000C290AAE0EA98006846F21041C4F20201C5
:1043F000884203D1FFE72020C1909BE0EA98006843
:1044000046F27001C4F20201884203D1FFE7202086
:10441000C0908CE0EA98006846F27041C4F2020154
:10442000884203D1FFE72020BF907DE0EA98006832
:1044300046F22801C4F20201884204D1FFE74FF49A
:104440000060BE906DE0EA98006846F22841C4F230
:104450000201884204D1FFE74FF40060BD905DE0A7
:10446000EA98006846F28801C4F20201884204D149
:10447000FFE74FF40060BC904DE0EA98006846F218
:104480008841C4F20201884204D1FFE74FF4006082
:10449000BB903DE0EA98006846F24001C4F2020198
:1044A000884204D1FFE74FF40010BA902DE0EA985B
:1044B000006846F24041C4F20201884204D1FFE79D
:1044C0004FF40010B9901DE0EA98006846F2A00190
:1044D000C4F20201884204D1FFE74FF40010B89003
:1044E0000DE0EA98016846F2A042C4F202024FF0E1
:1044F0000060914208BF4FF40010B890FFE7B898F1
:10450000B990FFE7B998BA90FFE7BA98BB90FFE778
:10451000BB98BC90FFE7BC98BD90FFE7BD98BE90EC
:10452000FFE7BE98BF90FFE7BF98C090FFE7C09835
:10453000C190FFE7C198C290FFE7C29846F2080118
:10454000C4F202010860C390FFE7C398CF90FFE771
:10455000CF98FFE7EA98006846F25941C4F2020199
:104560008842C0F0BF80FFE7EA98006846F2100179
:10457000C4F20201884203D1FFE71020B790AAE0FD
:10458000EA98006846F21041C4F20201884203D161
:10459000FFE71020B6909BE0EA98006846F27001B1
:1045A000C4F20201884203D1FFE71020B5908CE0ED
:1045B000EA98006846F27041C4F20201884203D1D1
:1045C000FFE71020B4907DE0EA98006846F22801E9
:1045D000C4F20201884204D1FFE74FF48060B39037
:1045E0006DE0EA98006846F22841C4F20201884270
:1045F00004D1FFE74FF48060B2905DE0EA98006874
:1046000046F28801C4F20201884204D1FFE74FF468
:104610008060B1904DE0EA98006846F28841C4F2AB
:104620000201884204D1FFE74FF48060B0903DE082
:10463000EA98006846F24001C4F20201884204D1BF
:10464000FFE74FF48010AF902DE0EA98006846F243
:104650004041C4F20201884204D1FFE74FF48010C8
:10466000AE901DE0EA98006846F2A001C4F2020193
:10467000884204D1FFE74FF48010AD900DE0EA9836
:10468000016846F2A042C4F202024FF080609142FB
:1046900008BF4FF48010AD90FFE7AD98AE90FFE7F4
:1046A000AE98AF90FFE7AF98B090FFE7B098B190A9
:1046B000FFE7B198B290FFE7B298B390FFE7B398E5
:1046C000B490FFE7B498B590FFE7B598B690FFE7D0
:1046D000B698B790FFE7B79846F20C41C4F20201D2
:1046E000086055E2EA98006846F2B901C4F2020196
:1046F0008842C0F0C080FFE7EA98006846F21001E7
:10470000C4F20201884203D1FFE71020AC90AAE076
:10471000EA98006846F21041C4F20201884203D1CF
:10472000FFE71020AB909BE0EA98006846F270012A
:10473000C4F20201884203D1FFE71020AA908CE066
:10474000EA98006846F27041C4F20201884203D13F
:10475000FFE71020A9907DE0EA98006846F2280162
:10476000C4F20201884204D1FFE74FF48060A890B0
:104770006DE0EA98006846F22841C4F202018842DE
:1047800004D1FFE74FF48060A7905DE0EA980068ED
:1047900046F28801C4F20201884204D1FFE74FF4D7
:1047A0008060A6904DE0EA98006846F28841C4F225
:1047B0000201884204D1FFE74FF48060A5903DE0FC
:1047C000EA98006846F24001C4F20201884204D12E
:1047D000FFE74FF48010A4902DE0EA98006846F2BD
:1047E0004041C4F20201884204D1FFE74FF4801037
:1047F000A3901DE0EA98006846F2A001C4F202010D
:10480000884204D1FFE74FF48010A2900DE0EA98AF
:10481000016846F2A042C4F202024FF08060914269
:1048200008BF4FF48010A290FFE7A298A390FFE783
:10483000A398A490FFE7A498A590FFE7A598A69059
:10484000FFE7A698A790FFE7A798A890FFE7A8988A
:10485000A990FFE7A998AA90FFE7AA98AB90FFE775
:10486000AB98AC90FFE7AC9846F20841C4F2020165
:104870000860A1908AE1EA98006846F25901C4F202
:1048800002018842C0F0C080FFE7EA98006846F263
:104890001001C4F20201884203D1FFE71020A0906A
:1048A000AAE0EA98006846F21041C4F20201884288
:1048B00003D1FFE710209F909BE0EA98006846F242
:1048C0007001C4F20201884203D1FFE710209E90DC
:1048D0008CE0EA98006846F27041C4F20201884216
:1048E00003D1FFE710209D907DE0EA98006846F232
:1048F0002801C4F20201884204D1FFE74FF480602E
:104900009C906DE0EA98006846F22841C4F20201EA
:10491000884204D1FFE74FF480609B905DE0EA9805
:10492000006846F28801C4F20201884204D1FFE720
:104930004FF480609A904DE0EA98006846F2884112
:10494000C4F20201884204D1FFE74FF480609990DD
:104950003DE0EA98006846F24001C4F20201884254
:1049600004D1FFE74FF4801098902DE0EA9800689A
:1049700046F24041C4F20201884204D1FFE74FF4FD
:10498000801097901DE0EA98006846F2A001C4F2FA
:104990000201884204D1FFE74FF4801096900DE0A9
:1049A000EA98016846F2A042C4F202024FF0806029
:1049B000914208BF4FF480109690FFE79698979029
:1049C000FFE797989890FFE798989990FFE7999854
:1049D0009A90FFE79A989B90FFE79B989C90FFE73F
:1049E0009C989D90FFE79D989E90FFE79E989F90D2
:1049F000FFE79F98A090FFE7A09846F20C01C4F251
:104A0000020108609590BEE0EA98006846F2100145
:104A1000C4F20201884203D1FFE710209490AAE07B
:104A2000EA98006846F21041C4F20201884203D1BC
:104A3000FFE7102093909BE0EA98006846F270012F
:104A4000C4F20201884203D1FFE7102092908CE06B
:104A5000EA98006846F27041C4F20201884203D12C
:104A6000FFE7102091907DE0EA98006846F2280167
:104A7000C4F20201884204D1FFE74FF480609090B5
:104A80006DE0EA98006846F22841C4F202018842CB
:104A900004D1FFE74FF480608F905DE0EA980068F2
:104AA00046F28801C4F20201884204D1FFE74FF4C4
:104AB00080608E904DE0EA98006846F28841C4F22A
:104AC0000201884204D1FFE74FF480608D903DE001
:104AD000EA98006846F24001C4F20201884204D11B
:104AE000FFE74FF480108C902DE0EA98006846F2C2
:104AF0004041C4F20201884204D1FFE74FF4801024
:104B00008B901DE0EA98006846F2A001C4F2020111
:104B1000884204D1FFE74FF480108A900DE0EA98B4
:104B2000016846F2A042C4F202024FF08060914256
:104B300008BF4FF480108A90FFE78A988B90FFE7B8
:104B40008B988C90FFE78C988D90FFE78D988E90D6
:104B5000FFE78E988F90FFE78F989090FFE79098EF
:104B60009190FFE791989290FFE792989390FFE7DA
:104B700093989490FFE7949846F20801C4F20201DA
:104B800008609590FFE79598A190FFE7A198FFE74F
:104B9000EA98006846F25941C4F202018842C0F026
:104BA000BF80FFE7EA98006846F21001C4F20201F4
:104BB000884203D1FFE708208990AAE0EA980068BC
:104BC00046F21041C4F20201884203D1FFE70820F7
:104BD00088909BE0EA98006846F27001C4F20201F6
:104BE000884203D1FFE7082087908CE0EA980068AC
:104BF00046F27041C4F20201884203D1FFE7082067
:104C000086907DE0EA98006846F22801C4F202012D
:104C1000884204D1FFE74FF4007085906DE0EA9878
:104C2000006846F22841C4F20201884204D1FFE73D
:104C30004FF4007084905DE0EA98006846F28801C5
:104C4000C4F20201884204D1FFE74FF40070839060
:104C50004DE0EA98006846F28841C4F202018842B9
:104C600004D1FFE74FF4007082903DE0EA980068BD
:104C700046F24001C4F20201884204D1FFE74FF43A
:104C8000002081902DE0EA98006846F24041C4F28D
:104C90000201884204D1FFE74FF4002080901DE01C
:104CA000EA98006846F2A001C4F20201884204D1E9
:104CB000FFE74FF400207F900DE0EA98016846F28C
:104CC000A042C4F202024FF00070914208BF4FF4BC
:104CD00000207F90FFE77F988090FFE78098819089
:104CE000FFE781988290FFE782988390FFE783989F
:104CF0008490FFE784988590FFE785988690FFE78A
:104D000086988790FFE787988890FFE78898899032
:104D1000FFE7899846F20C41C4F20201086055E2AF
:104D2000EA98006846F2B901C4F202018842C0F074
:104D3000C080FFE7EA98006846F21001C4F2020161
:104D4000884203D1FFE708207E90AAE0EA98006835
:104D500046F21041C4F20201884203D1FFE7082065
:104D60007D909BE0EA98006846F27001C4F202016F
:104D7000884203D1FFE708207C908CE0EA98006825
:104D800046F27041C4F20201884203D1FFE70820D5
:104D90007B907DE0EA98006846F22801C4F20201A7
:104DA000884204D1FFE74FF400707A906DE0EA98F2
:104DB000006846F22841C4F20201884204D1FFE7AC
:104DC0004FF4007079905DE0EA98006846F288013F
:104DD000C4F20201884204D1FFE74FF400707890DA
:104DE0004DE0EA98006846F28841C4F20201884228
:104DF00004D1FFE74FF4007077903DE0EA98006837
:104E000046F24001C4F20201884204D1FFE74FF4A8
:104E1000002076902DE0EA98006846F24041C4F206
:104E20000201884204D1FFE74FF4002075901DE095
:104E3000EA98006846F2A001C4F20201884204D157
:104E4000FFE74FF4002074900DE0EA98016846F205
:104E5000A042C4F202024FF00070914208BF4FF42A
:104E600000207490FFE774987590FFE7759876902E
:104E7000FFE776987790FFE777987890FFE7789844
:104E80007990FFE779987A90FFE77A987B90FFE72F
:104E90007B987C90FFE77C987D90FFE77D987E90E3
:104EA000FFE77E9846F20841C4F202010860739061
:104EB0008AE1EA98006846F25901C4F20201884288
:104EC000C0F0C080FFE7EA98006846F21001C4F223
:104ED0000201884203D1FFE708207290AAE0EA9815
:104EE000006846F21041C4F20201884203D1FFE794
:104EF000082071909BE0EA98006846F27001C4F2C5
:104F00000201884203D1FFE7082070908CE0EA9804
:104F1000006846F27041C4F20201884203D1FFE703
:104F200008206F907DE0EA98006846F22801C4F2FC
:104F30000201884204D1FFE74FF400706E906DE0EB
:104F4000EA98006846F22841C4F20201884204D17E
:104F5000FFE74FF400706D905DE0EA98006846F25C
:104F60008801C4F20201884204D1FFE74FF40070C7
:104F70006C904DE0EA98006846F28841C4F2020164
:104F8000884204D1FFE74FF400706B903DE0EA984F
:104F9000006846F24001C4F20201884204D1FFE7F2
:104FA0004FF400206A902DE0EA98006846F24041F4
:104FB000C4F20201884204D1FFE74FF40020699057
:104FC0001DE0EA98006846F2A001C4F2020188429E
:104FD00004D1FFE74FF4002068900DE0EA980168E3
:104FE00046F2A042C4F202024FF00070914208BFA4
:104FF0004FF400206890FFE768986990FFE7699890
:105000006A90FFE76A986B90FFE76B986C90FFE7F8
:105010006C986D90FFE76D986E90FFE76E986F90BB
:10502000FFE76F987090FFE770987190FFE77198B5
:105030007290FFE7729846F20C01C4F20201086018
:105040006790BEE0EA98006846F21001C4F20201DF
:10505000884203D1FFE708206690AAE0EA9800683A
:1050600046F21041C4F20201884203D1FFE7082052
:1050700065909BE0EA98006846F27001C4F2020174
:10508000884203D1FFE7082064908CE0EA9800682A
:1050900046F27041C4F20201884203D1FFE70820C2
:1050A00063907DE0EA98006846F22801C4F20201AC
:1050B000884204D1FFE74FF4007062906DE0EA98F7
:1050C000006846F22841C4F20201884204D1FFE799
:1050D0004FF4007061905DE0EA98006846F2880144
:1050E000C4F20201884204D1FFE74FF400706090DF
:1050F0004DE0EA98006846F28841C4F20201884215
:1051000004D1FFE74FF400705F903DE0EA9800683B
:1051100046F24001C4F20201884204D1FFE74FF495
:1051200000205E902DE0EA98006846F24041C4F20B
:105130000201884204D1FFE74FF400205D901DE09A
:10514000EA98006846F2A001C4F20201884204D144
:10515000FFE74FF400205C900DE0EA98016846F20A
:10516000A042C4F202024FF00070914208BF4FF417
:1051700000205C90FFE75C985D90FFE75D985E9093
:10518000FFE75E985F90FFE75F986090FFE76098A9
:105190006190FFE761986290FFE762986390FFE794
:1051A00063986490FFE764986590FFE76598669060
:1051B000FFE7669846F20801C4F2020108606790B2
:1051C000FFE767987390FFE77398FFE7EA98006836
:1051D00046F25941C4F202018842C0F0BF80FFE7A5
:1051E000EA98006846F21001C4F20201884203D135
:1051F000FFE704205B90AAE0EA98006846F21041BD
:10520000C4F20201884203D1FFE704205A909BE0D8
:10521000EA98006846F27001C4F20201884203D1A4
:10522000FFE7042059908CE0EA98006846F270414C
:10523000C4F20201884203D1FFE7042058907DE0C8
:10524000EA98006846F22801C4F20201884204D1BB
:10525000FFE74FF4807057906DE0EA98006846F2DF
:105260002841C4F20201884204D1FFE74FF4807064
:1052700056905DE0EA98006846F28801C4F20201A7
:10528000884204D1FFE74FF4807055904DE0EA98D2
:10529000006846F28841C4F20201884204D1FFE767
:1052A0004FF4807054903DE0EA98006846F2400167
:1052B000C4F20201884204D1FFE74FF480205390EA
:1052C0002DE0EA98006846F24041C4F202018842AB
:1052D00004D1FFE74FF4802052901DE0EA98006867
:1052E00046F2A001C4F20201884204D1FFE74FF464
:1052F000802051900DE0EA98016846F2A042C4F285
:1053000002024FF08070914208BF4FF4802051900C
:10531000FFE751985290FFE752985390FFE7539858
:105320005490FFE754985590FFE755985690FFE743
:1053300056985790FFE757985890FFE7589859901C
:10534000FFE759985A90FFE75A985B90FFE75B9800
:1053500046F20C41C4F20201086055E2EA98006886
:1053600046F2B901C4F202018842C0F0C080FFE7F2
:10537000EA98006846F21001C4F20201884203D1A3
:10538000FFE704205090AAE0EA98006846F2104136
:10539000C4F20201884203D1FFE704204F909BE052
:1053A000EA98006846F27001C4F20201884203D113
:1053B000FFE704204E908CE0EA98006846F27041C6
:1053C000C4F20201884203D1FFE704204D907DE042
:1053D000EA98006846F22801C4F20201884204D12A
:1053E000FFE74FF480704C906DE0EA98006846F259
:1053F0002841C4F20201884204D1FFE74FF48070D3
:105400004B905DE0EA98006846F28801C4F2020120
:10541000884204D1FFE74FF480704A904DE0EA984B
:10542000006846F28841C4F20201884204D1FFE7D5
:105430004FF4807049903DE0EA98006846F24001E0
:10544000C4F20201884204D1FFE74FF48020489063
:105450002DE0EA98006846F24041C4F20201884219
:1054600004D1FFE74FF4802047901DE0EA980068E0
:1054700046F2A001C4F20201884204D1FFE74FF4D2
:10548000802046900DE0EA98016846F2A042C4F2FE
:1054900002024FF08070914208BF4FF48020469086
:1054A000FFE746984790FFE747984890FFE74898FE
:1054B0004990FFE749984A90FFE74A984B90FFE7E9
:1054C0004B984C90FFE74C984D90FFE74D984E90CD
:1054D000FFE74E984F90FFE74F985090FFE75098A6
:1054E00046F20841C4F20201086045908AE1EA9858
:1054F000006846F25901C4F202018842C0F0C0803F
:10550000FFE7EA98006846F21001C4F202018842FF
:1055100003D1FFE704204490AAE0EA98006846F22D
:105520001041C4F20201884203D1FFE704204390F6
:105530009BE0EA98006846F27001C4F202018842DA
:1055400003D1FFE7042042908CE0EA98006846F21D
:105550007041C4F20201884203D1FFE70420419068
:105560007DE0EA98006846F22801C4F20201884210
:1055700004D1FFE74FF4807040906DE0EA98006836
:1055800046F22841C4F20201884204D1FFE74FF4F9
:1055900080703F905DE0EA98006846F28801C4F2AE
:1055A0000201884204D1FFE74FF480703E904DE045
:1055B000EA98006846F28841C4F20201884204D1A8
:1055C000FFE74FF480703D903DE0EA98006846F2B6
:1055D0004001C4F20201884204D1FFE74FF4802069
:1055E0003C902DE0EA98006846F24041C4F2020186
:1055F000884204D1FFE74FF480203B901DE0EA98F9
:10560000006846F2A001C4F20201884204D1FFE71B
:105610004FF480203A900DE0EA98016846F2A042EB
:10562000C4F202024FF08070914208BF4FF4802014
:105630003A90FFE73A983B90FFE73B983C90FFE7B2
:105640003C983D90FFE73D983E90FFE73E983F90A5
:10565000FFE73F984090FFE740984190FFE741986F
:105660004290FFE742984390FFE743984490FFE75A
:10567000449846F20C01C4F2020108603990BEE081
:10568000EA98006846F21001C4F20201884203D190
:10569000FFE704203890AAE0EA98006846F210413B
:1056A000C4F20201884203D1FFE7042037909BE057
:1056B000EA98006846F27001C4F20201884203D100
:1056C000FFE7042036908CE0EA98006846F27041CB
:1056D000C4F20201884203D1FFE7042035907DE047
:1056E000EA98006846F22801C4F20201884204D117
:1056F000FFE74FF4807034906DE0EA98006846F25E
:105700002841C4F20201884204D1FFE74FF48070BF
:1057100033905DE0EA98006846F28801C4F2020125
:10572000884204D1FFE74FF4807032904DE0EA9850
:10573000006846F28841C4F20201884204D1FFE7C2
:105740004FF4807031903DE0EA98006846F24001E5
:10575000C4F20201884204D1FFE74FF48020309068
:105760002DE0EA98006846F24041C4F20201884206
:1057700004D1FFE74FF480202F901DE0EA980068E5
:1057800046F2A001C4F20201884204D1FFE74FF4BF
:1057900080202E900DE0EA98016846F2A042C4F203
:1057A00002024FF08070914208BF4FF480202E908B
:1057B000FFE72E982F90FFE72F983090FFE7309863
:1057C0003190FFE731983290FFE732983390FFE74E
:1057D00033983490FFE734983590FFE7359836904A
:1057E000FFE736983790FFE737983890FFE738980B
:1057F00046F20801C4F2020108603990FFE73998C7
:105800004590FFE74598FFE7EA98006846F259415E
:10581000C4F202018842C0F0BB80FFE7EA9800684A
:1058200046F21001C4F20201884203D1FFE70120D1
:105830002D90A6E0EA98006846F21041C4F20201F9
:10584000884203D1FFE701202C9097E0EA98006896
:1058500046F27001C4F20201884203D1FFE7012041
:105860002B9088E0EA98006846F27041C4F2020189
:10587000884203D1FFE701202A9079E0EA98006886
:1058800046F22801C4F20201884203D1FFE740201A
:1058900029906AE0EA98006846F22841C4F20201C1
:1058A000884203D1FFE7402028905BE0EA98006837
:1058B00046F28801C4F20201884203D1FFE740208A
:1058C00027904CE0EA98006846F28841C4F2020151
:1058D000884203D1FFE7402026903DE0EA98006827
:1058E00046F24001C4F20201884204D1FFE74FF4BE
:1058F000803025902DE0EA98006846F24041C4F2DD
:105900000201884204D1FFE74FF4803024901DE06B
:10591000EA98006846F2A001C4F20201884204D16C
:10592000FFE74FF4803023900DE0EA98016846F2DB
:10593000A042C4F202024FF48000914208BF4FF42B
:1059400080302390FFE723982490FFE72498259048
:10595000FFE725982690FFE726982790FFE72798EE
:105960002890FFE728982990FFE729982A90FFE7D9
:105970002A982B90FFE72B982C90FFE72C982D90DE
:10598000FFE72D9846F20C41C4F20201086049E29B
:10599000EA98006846F2B901C4F202018842C0F0F8
:1059A000BC80FFE7EA98006846F21001C4F20201E9
:1059B000884203D1FFE701202290A6E0EA98006820
:1059C00046F21041C4F20201884203D1FFE70120F0
:1059D000219097E0EA98006846F27001C4F2020153
:1059E000884203D1FFE70120209088E0EA98006810
:1059F00046F27041C4F20201884203D1FFE7012060
:105A00001F9079E0EA98006846F22801C4F202018A
:105A1000884203D1FFE740201E906AE0EA980068C0
:105A200046F22841C4F20201884203D1FFE7402038
:105A30001D905BE0EA98006846F28801C4F202011A
:105A4000884203D1FFE740201C904CE0EA980068B0
:105A500046F28841C4F20201884203D1FFE74020A8
:105A60001B903DE0EA98006846F24001C4F2020152
:105A7000884204D1FFE74FF480301A902DE0EA9875
:105A8000006846F24041C4F20201884204D1FFE7B7
:105A90004FF4803019901DE0EA98006846F2A001AA
:105AA000C4F20201884204D1FFE74FF4803018901D
:105AB0000DE0EA98016846F2A042C4F202024FF4F7
:105AC0008000914208BF4FF480301890FFE718988B
:105AD0001990FFE719981A90FFE71A981B90FFE7B3
