:020000040800F2
:10000000F02B01208D0200089502000811940008D1
:10001000990200089B0200089D02000800000000F1
:100020000000000000000000000000009F02000827
:10003000A102000800000000A302000889C4000813
:10004000A7020008A7020008A7020008A7020008EC
:10005000A7020008A7020008A7020008A7020008DC
:10006000A7020008A7020008A702000875210008DF
:100070008521000895210008A7020008A521000895
:10008000A7020008B5210008A7020008A70200087F
:10009000A7020008A7020008A7020008A70200089C
:1000A000A7020008A7020008A7020008A70200088C
:1000B000A7020008A7020008A7020008A70200087C
:1000C000A7020008A7020008A7020008A70200086C
:1000D000A7020008A7020008A702000885D20008AE
:1000E000A7020008A7020008A7020008A70200084C
:1000F000A7020008A7020008A7020008A70200083C
:10010000A7020008A7020008A7020008A70200082B
:10011000A7020008A7020008A702000861C500089E
:10012000A7020008C5210008A7020008A7020008CE
:10013000A7020008A7020008A7020008A7020008FB
:10014000A7020008A7020008A7020008A7020008EB
:10015000D5210008A7020008A7020008A70200088E
:10016000A7020008A7020008A7020008A7020008CB
:10017000A7020008A702000865210008000000008F
:10018000A7020008A7020008A7020008A7020008AB
:10019000A7020008A7020008A7020008A70200089B
:1001A000A7020008A7020008A702000800F002F852
:1001B00000F05CF80AA090E8000C82448344AAF1A5
:1001C0000107DA4501D100F051F8AFF2090EBAE8A3
:1001D0000F0013F0010F18BFFB1A43F0010318477B
:1001E000E0F7000000F800000A444FF0000C10F89F
:1001F000013B13F0070408BF10F8014B1D1108BFA5
:1002000010F8015B641E05D010F8016B641E01F844
:10021000016BF9D113F0080F1EBF10F8014BAD1C94
:100220000C1B09D16D1E58BF01F801CBFAD505E0B2
:1002300014F8016B01F8016B6D1EF9D59142D6D30C
:10024000704700000023002400250026103A28BF34
:1002500078C1FBD8520728BF30C148BF0B60704738
:100260001FB50EF062FE1FBD10B510BD00F092F973
:100270001146FFF7F5FF0DF06DFB00F0B0F903B488
:10028000FFF7F2FF03BC00F0B7F900000948804710
:1002900009480047FEE7FEE7FEE7FEE7FEE7FEE768
:1002A000FEE7FEE7FEE7FEE704480549054A064B80
:1002B000704700004DC50008AD010008F021012085
:1002C000F02B0120F0260120F026012053EA020C39
:1002D00000F069802DE9F04B4FF00006002B1FBFA6
:1002E000B3FA83F503FA05F424FA05F65E4012BF6B
:1002F0001643B2FA82F502FA05F4C5F120051EBFD5
:1003000022FA05FC44EA0C04203556EA044C4FEA74
:10031000144418BF641C4FF000084FF000099042CD
:1003200071EB030C39D3002919BFB1FA81F701FA37
:1003300007F6B0FA80F700FA07F6C7F120071EBFEC
:1003400020FA07FC46EA0C062037B6FBF4FCA7EBC4
:100350000507103F07F01F0BCBF120062CFA06F61D
:100360000CFA0BFB44BFB3460026202FA4BF5E4609
:100370004FF0000B5BEA060C08BF4FF0010B19EBC6
:100380000B0948EB0608ABFB027C06FB02CC0BFB1F
:1003900003CCC01B71EB0C01C1E70B460246414682
:1003A0004846BDE8F08B13B5084318BF4FF0FF3047
:1003B0000146AFF30080BDE81C40704740EA0103EE
:1003C00010B59B070FD1042A0DD310C808C9121FFE
:1003D0009C42F8D020BA19BA884201D9012010BD38
:1003E0004FF0FF3010BD1AB1D30703D0521C07E005
:1003F000002010BD10F8013B11F8014B1B1B07D169
:1004000010F8013B11F8014B1B1B01D1921EF1D1D9
:10041000184610BD10B5431C02E010F8011B71B165
:100420008107FAD14FF0013202C88C1A8C4314EACA
:10043000C211F9D0C01A0A0603D0C01E10BDC01ADE
:1004400010BD0A0401D0801E10BD0902FCD0401E60
:1004500010BD032A40F2308010F0030C00F015802C
:1004600011F8013BBCF1020F624498BF11F801CBB7
:1004700000F8013B38BF11F8013BA2F1040298BF1C
:1004800000F801CB38BF00F8013B11F0030300F086
:100490004F80083AC0F0088051F8043B083A51F800
:1004A00004CBA0E80810F5E7121D5CBF51F8043B2F
:1004B00040F8043BAFF30080D20724BF11F8013BA2
:1004C00011F801CB48BF11F8012B24BF00F8013B04
:1004D00000F801CB48BF00F8012B70474FF0000235
:1004E00000B5134694469646203922BFA0E80C502A
:1004F000A0E80C50B1F12001BFF4F7AF090728BF05
:10050000A0E80C5048BF0CC05DF804EB890028BF80
:1005100040F8042B08BF704748BF20F8022B11F0A9
:10052000804F18BF00F8012B704770477047704725
:1005300010B5203AC0F00B80B1E81850A0E8185070
:10054000B1E81850A0E81850203ABFF4F5AF5FEAC0
:10055000027C24BFB1E81850A0E8185044BF18C965
:1005600018C0BDE810405FEA827C24BF51F8043B0C
:1005700040F8043B08BF7047D20728BF31F8023B60
:1005800048BF11F8012B28BF20F8023B48BF00F8F4
:10059000012B7047754600F02BF8AE460500694602
:1005A000534620F00700854618B020B5FFF77CFEC3
:1005B000BDE820404FF000064FF000074FF0000864
:1005C0004FF0000BAC46ACE8C009ACE8C009ACE8A1
:1005D000C009ACE8C00921F007018D46704710B58D
:1005E0000446AFF300802046BDE81040FFF747BE49
:1005F000004870477802002001491820ABBEFEE792
:10060000260002007047000082B0019042F20030E4
:10061000C4F2010000900099486820F4403048601E
:100620000198426800994868104348600198016841
:10063000486820F480704860019801680269486841
:1006400040EA0220486001980168486820F0407044
:1006500048600198016882684868104348600198C2
:100660000168886820F40060886001980168C268A9
:100670008868104388600198806A0121C0F6007183
:10068000884219D0FFE701980168886820F07060FF
:10069000886001980168826A8868104388600198C0
:1006A0000168886820F04050886001980168C26A3B
:1006B0008868104388600CE001980168886820F021
:1006C0007060886001980168886820F040508860F8
:1006D000FFE701980168886820F0020088600198AF
:1006E000027E0168886840EA42008860019890F8BC
:1006F0002000C8B1FFE701980168486840F4006035
:10070000486001980168486820F46040486001989A
:100710000168426A4EF20000CFF6FF7000EB4232F1
:1007200048681043486006E001980168486820F472
:1007300000604860FFE701980168C86A20F4700013
:10074000C86201980168C2690020CFF6F07000EB22
:100750000252C86A1043C86201980168886820F490
:1007600000708860019890F830200168886840EA3D
:100770004220886001980168886820F48060886061
:10078000019801684269886840EA8220886002B066
:100790007047000080B582B00190019940F2D820E6
:1007A000C2F2000000904FF29412C0F6000200F076
:1007B00057F8009840F28001C2F2000100F012F8F0
:1007C000009840F25831C2F2000100F071F8009830
:1007D00040F25C31C2F2000100F0A8F8002002B043
:1007E00080BD000083B001900091019880B3FFE7C5
:1007F000009868B3FFE701994FF66E10C0F600004D
:10080000C86001980061009801994861019949F216
:10081000F930C0F600008861019942F22D60C0F6FF
:100820000000C86101994BF27D70C0F600000862BB
:10083000019942F67520C0F60000486201994CF219
:100840009D00C0F60000886200208DF80B0003E0D8
:1008500002208DF80B00FFE79DF80B0003B07047F6
:1008600084B00290019100920298C8B1FFE700980D
:10087000B0B1FFE702994FF66310C0F600000860C0
:1008800001980299486000980299886002994EF692
:100890006C70C0F60000886700208DF80F0003E040
:1008A00008208DF80F00FFE79DF80F0004B0704797
:1008B00083B001900091019880B3FFE7009868B37E
:1008C000FFE701994FF68710C0F60000C862019853
:1008D0000063009801994863019949F20140C0F60C
:1008E00000008863019942F24160C0F60000C863CD
:1008F00001994BF29170C0F600000864019942F62C
:100900008520C0F60000486401994CF2AD00C0F6A5
:100910000000886400208DF80B0003E002208DF8B1
:100920000B00FFE79DF80B0003B0704783B0019008
:100930000091019880B3FFE7009868B3FFE7019941
:100940004FF6A210C0F60000C86401980065009838
:1009500001994865019949F20940C0F6000088658F
:10096000019942F25560C0F60000C86501994BF24A
:10097000A570C0F600000866019942F69520C0F601
:100980000000486601994CF2BD00C0F60000886680
:1009900000208DF80B0003E002208DF80B00FFE72C
:1009A0009DF80B0003B0704780B588B007900691A2
:1009B0000798008CC0F38120012840F0CC80FFE72D
:1009C0000798008C80080007002840F0C480FFE7EB
:1009D0000798008C8009000798B1FFE70799088CF9
:1009E00040F4406008840799088C6FF31F30088436
:1009F00007988168D1F800C0042100231A46E04717
:100A0000A9E00798018C080B01900120B0EB113F81
:100A100008D0FFE7019802281CD0FFE701980328BF
:100A200033D04BE0079A118C022060F31F31118400
:100A300044F20001C4F21C61029105900020C4F24E
:100A4000F01003904EF660200490079802A90BF076
:100A5000A3F980E0079A118C032060F31F31118401
:100A600044F20001C4F21C61029105900020C4F21E
:100A7000A02003904EF66020049007980AF03CFFF7
:100A8000079802A90BF088F965E00799088C042201
:100A900062F31F30088444F20000C4F21C6002902C
:100AA000022005900020C4F2F01003904EF6602062
:100AB0000490079802A90BF06FF94CE00799088C95
:100AC00020F4406000F5006008840799088C6FF3FB
:100AD0001F3008849DED060AB8EEC00A10EE100A19
:100AE0000EF088F941EC100B9FED1D1B53EC112B00
:100AF00051EC100B0DF03EFD41EC100B51EC100BC6
:100B00000DF052FC0799C86307980AF0F5FE0798A4
:100B100000230093436407988168D1F800C0032143
:100B20001A46E04700980799096C02910021C4F227
:100B3000202103910590079890ED100A9FED0A1A65
:100B400020EE010ABCEEC00A8DED040A079802A946
:100B50000BF022F9FFE708B080BD00BF00BF00BF67
:100B6000000000000080764000803B4580B582B0E8
:100B7000019001984169D1F808C0012100231A466B
:100B8000E04702B080BD000080B582B001900198BE
:100B9000416909688847019830300DF019FB02B0AF
:100BA00080BD000084B00290019100920298C0B113
:100BB000FFE70098A8B1FFE702994FF6E400C0F6FE
:100BC00000000860019802994860009802998861C5
:100BD0000299087F00F08700087700208DF80F0049
:100BE00003E008208DF80F00FFE79DF80F0004B028
:100BF0007047000080B584B00290019102980028EF
:100C000049D0FFE70198002845D0FFE702994FF649
:100C1000EC00C0F6000088600298C060019802995C
:100C200008610298019908600298083009F03EFEB8
:100C30000298806908210CF08DFF38B1FFE7029916
:100C4000487F082262F31F1048771EE00299487F10
:100C500000F00F004877019A101D02994FF2F0330F
:100C6000C0F60003EC46CCF800304FF22823C0F663
:100C7000000309F0ABFE02460299487F02F00F0222
:100C800000F0F00010444877FFE70298407F000929
:100C90008DF80F0003E008208DF80F00FFE79DF8A6
:100CA0000F0004B080BD000080B584B00390002028
:100CB0008DF80B00039940F26030C2F2000040F260
:100CC000C402C2F20002FFF76DFF8DF80B009DF821
:100CD0000B0008B1FFE724E040F26030C2F20000F0
:100CE000019040F63801C2F2000141664FF6FC71F6
:100CF000816640F2CC01C2F20001FFF77BFF0146A2
:100D000001988DF80B104EF69C71C0F60001C1627F
:100D1000303064214FF4FA629FED040A0DF06EFA50
:100D2000FFE79DF80B0004B080BD00BFCDCC4C3F69
:100D300080B582B001908DF80310019841690B696C
:100D40009DF90320062198478DF802009DF80200C6
:100D500030B9FFE79DF80300019981F82400FFE70F
:100D60009DF8020002B080BD80B584B0039002916E
:100D7000ADF8062003984169D1F808C0029ABDF881
:100D800006300221E04704B080BD000080B582B08B
:100D900001908DF80310019841690B699DF90320BA
:100DA000042198478DF802009DF8020030B9FFE752
:100DB0009DF80300019981F82200FFE79DF80200E9
:100DC00002B080BD80B582B001908DF8031001980B
:100DD00041690B699DF803200A2198478DF80200AC
:100DE0009DF8020030B9FFE79DF80300019981F8F2
:100DF0002800FFE79DF8020002B080BD80B582B0F8
:100E000001908DF80310019841690B699DF803204A
:100E1000072198478DF802009DF8020030B9FFE7DE
:100E20009DF80300019981F82500FFE79DF8020075
:100E300002B080BD80B584B00390029103984169EF
:100E4000D1F808C0029A03210023E0478DF807007B
:100E50009DF8070038B9FFE703982030029909226E
:100E60000CF09AFEFFE79DF8070004B080BD00007B
:100E700080B582B001908DF80310019841690B692B
:100E80009DF80320022198478DF802009DF802008A
:100E900030B9FFE79DF80300019981F82000FFE7D2
:100EA0009DF8020002B080BD80B582B001908DF83F
:100EB0000310019841690B699DF8032009219847A7
:100EC0008DF802009DF8020030B9FFE79DF803009D
:100ED000019981F82700FFE79DF8020002B080BD6C
:100EE00080B582B001908DF80310019841690B69BB
:100EF0009DF80320032198478DF802009DF8020019
:100F000030B9FFE79DF80300019981F82100FFE760
:100F10009DF8020002B080BD80B582B001908DF8CE
:100F20000310019841690B699DF903200521984739
:100F30008DF802009DF8020030B9FFE79DF803002C
:100F4000019981F82300FFE79DF8020002B080BDFF
:100F500080B582B001908DF80310019841690B694A
:100F60009DF80320082198478DF802009DF80200A3
:100F700030B9FFE79DF80300019981F82600FFE7EB
:100F80009DF8020002B080BD80B582B0019001984A
:100F900000680090019800690099203109220CF046
:100FA0006DFE02B080BD000080B582B00190019856
:100FB00000680090009890F8200028B1FFE70098A2
:100FC0000021FFF755FFFFE70098FFF7CFFD80B93D
:100FD000FFE7009830304EF6BC71C0F600010DF00E
:100FE00017F8009830300199096949690DF036F910
:100FF000FFE702B080BD000081B0009001B07047F3
:1010000080B582B001900198006800900198006955
:1010100000991C3104220CF031FE02B080BD0000AA
:1010200080B584B003900291039800680190019804
:10103000029991F90010FFF77BFEADF802000398CA
:1010400000690DF1020102220CF018FE03980069FC
:101050000199243101220CF011FE04B080BD000082
:1010600080B586B005900491ADF80E200598006813
:10107000029002980499BDF80E20FFF775FEADF8B6
:101080000600059800690DF1060102220CF0F6FD3C
:1010900006B080BD80B584B00390029103980068CB
:1010A00001900198029991F90010FFF76FFEADF8D9
:1010B0000200039800690DF1020102220CF0DEFD2E
:1010C000039800690199223101220CF0D7FD04B088
:1010D00080BD000080B584B0039002910398006841
:1010E0000190019802990978FFF76CFEADF80200B3
:1010F000039800690DF1020102220CF0BFFD039874
:1011000000690199283101220CF0B8FD04B080BDBE
:1011100080B584B003900291039800680190019813
:1011200002990978FFF76AFEADF80200039800699A
:101130000DF1020102220CF0A1FD03980069019952
:10114000253101220CF09AFD04B080BD80B584B039
:101150000390029103980068019001980299FFF7AB
:1011600069FEADF80200039800690DF10201022248
:101170000CF084FD039800690199203109220CF0DC
:101180007DFD04B080BD000080B584B00390029165
:10119000039800680190019802990978FFF768FEAA
:1011A000ADF80200039800690DF1020102220CF073
:1011B00065FD039800690199203101220CF05EFD64
:1011C00004B080BD80B584B003900291039800689C
:1011D0000190019802990978FFF766FEADF80200C8
:1011E000039800690DF1020102220CF047FD0398FB
:1011F00000690199273101220CF040FD04B080BD47
:1012000080B584B003900291039800680190019822
:1012100002990978FFF764FEADF8020003980069AF
:101220000DF1020102220CF029FD039800690199D9
:10123000213101220CF022FD04B080BD80B584B0C4
:10124000039002910398006801900198029991F926
:101250000010FFF761FEADF80200039800690DF180
:10126000020102220CF00AFD039800690199233162
:1012700001220CF003FD04B080BD000080B584B0F5
:1012800003900291039800680190019802990978EF
:10129000FFF75EFEADF80200039800690DF1020150
:1012A00002220CF0EBFC039800690199263101221F
:1012B0000CF0E4FC04B080BD80B586B005900598C4
:1012C000008CC0F3812001282ED0FFE70598008C08
:1012D0008008000740BBFFE7059948F20000C4F210
:1012E000FD40C863059A118C012060F31F31118401
:1012F000059A118C21F4406101F58061118444F25A
:101300000001CCF21C6101910021C4F2A0210291E4
:101310004EF6602103910490059800F005F90598B8
:1013200001A900F095FAFFE7032006B080BD000098
:1013300080B582B00190019940F2D030C2F2000035
:1013400000904FF28412C0F6000200F0A7F8009857
:1013500040F21011C2F2000100F004F8002002B0C7
:1013600080BD000083B0019000910198002863D0F7
:10137000FFE7009800285FD0FFE701994FF62D1096
:10138000C0F60000C86001980061009801994861AA
:10139000019940F29410C2F200008861019800990E
:1013A000086000998868C862009A92F844000C238B
:1013B00003EA9001012000FA01F11163009A91689B
:1013C00092F844C003EA9C03194434315163009AF3
:1013D00051681162009991F8442002F00C0290408B
:1013E00048620099486891F8442002F00C021044C9
:1013F0003430886200988168486C40F4004048644A
:1014000000984168486C40F4004048640098C16806
:10141000086840F00100086000988168086840F0A2
:101420000100086000984168086840F00100086009
:1014300000208DF80B0003E002208DF80B00FFE781
:101440009DF80B0003B0704780B584B003908DF811
:101450000B100192009303988169D1F808C09DF8A0
:101460000B10019A009BE04704B080BD80B582B0AC
:1014700001908DF8031001988169CA689DF80310E6
:10148000904702B080BD000080B582B00190019805
:1014900081690968884702B080BD000084B002906D
:1014A000019100920298B8B3FFE70098A0B3FFE75C
:1014B00002994FF62310C0F60000086001980299C7
:1014C0004860009802998860029948F20000C4F2CE
:1014D000FD40C86302990020C4F21010086402990C
:1014E0000020C4F22010086302994863029900208A
:1014F000C4F2042088620299C86202990020C4F2F2
:101500008C20886302994FF25000C0F600000866F4
:1015100000208DF80F0003E008208DF80F00FFE792
:101520009DF80F0004B0704780B582B0009000981D
:10153000008C8008000758B9FFE700988169D1F84E
:1015400008C0032100231A46E0478DF8070003E096
:1015500003208DF80700FFE79DF8070002B080BD6B
:1015600083B0019000910198008C8008000750B969
:10157000FFE70199009A106852680A64C863002066
:101580008DF80B0003E003208DF80B00FFE79DF8BA
:101590000B0003B07047000080B584B00290019149
:1015A0000298008C8008000730BBFFE70298816931
:1015B000D1F808C0019A02210023E047C0B9FFE733
:1015C0000299DDF804E0DEF80000DEF80420DEF821
:1015D0000830DEF80CC0DEF810E0C1F838E0C1F8E1
:1015E00034C00B63CA62886200208DF80F0007E0E8
:1015F00001208DF80F0003E003208DF80F00FFE7B6
:101600009DF80F0004B080BD80B594B012908DF8A5
:1016100047109DF84700142804DBFFE70A208DF8E7
:101620004F00FCE09DF847000DF069F941EC100B0C
:101630009FED7D1B53EC112B51EC100B0DF0EEF9CF
:1016400041EC100B8DED000B1298006C0DF0D2FBED
:101650009DED001B41EC100B51EC110B53EC102BCA
:101660000CF0D4FE41EC100B51EC100B0CF09CFE76
:1016700010901298406C0F900F980DF0BBFB41EC4E
:10168000100B51EC100B9FED6A0B53EC102B0393D6
:1016900002920CF06FFF41EC100B51EC100B0DF0AF
:1016A000FFF80E900E980DF02AF9029A039B41EC78
:1016B000100B51EC100B0DF0B1F941EC100B8DED4E
:1016C000040B0F980DF096FB9DED041B41EC100BE5
:1016D00053EC112B51EC100B0DF09EFA41EC100B5A
:1016E00051EC100B0CF060FE0F909DED0F0AB5EE63
:1016F000400AF1EE10FA09DAFFE79DED0F0A9FEDBF
:10170000521A30EE010A8DED0F0AFFE701200D900D
:1017100010980DF06FFB41EC100B9FED451B53EC47
:10172000112B51EC100B0DF0ACFBA8B9FFE7109892
:101730000DF060FB41EC100B9FED3F1B53EC112BA8
:1017400051EC100B0CF062FE41EC100B51EC100B45
:101750000CF02AFE1090FFE79DED100A9DED0F1A88
:1017600030EE410A10EE100A0DF044FB41EC100B74
:1017700051EC100B9FED320B52EC103BD20F62F389
:10178000DF7141EC100B51EC100B0CF00DFE0C90C6
:101790009DED0C0A9FED2D1AB4EE410AF1EE10FA00
:1017A0000FDDFFE79DED0C1A9FED270A30EE410A91
:1017B0008DED0C0A9DED0C0AB1EE400A8DED0C0A80
:1017C000FFE79DED0F0A9DED101AB4EE410AF1EE10
:1017D00010FA04DDFFE74FF0FF300D90FFE79DEDBD
:1017E0000D0AB8EEC00A9DED0C1A20EE010A1298FF
:1017F00090ED111A30EE010A8DED0B0A0B9807904F
:101800001298806B08904EF66020099000200A9094
:10181000129807A900F01CF88DF84F00FFE79DF81B
:101820004F0014B080BD00BF000000000000324037
:10183000000000000080764000000000008076C0BC
:1018400000000000000000000000B443000034432A
:1018500080B582B00190009101988169D1F808C0EB
:10186000009A01210023E04702B080BD80B582B01C
:10187000019001988169D1F808C0042100230093E8
:101880001A46E047009802B080BD000080B584B0E1
:101890000290019102980069009002980BF05EFDA1
:1018A0000298007F4007002804D5FFE701208DF84B
:1018B0000F0034E00298007FC00720B1FFE700204E
:1018C0008DF80F002BE002980AF096FD0198406811
:1018D0000099486300988168002048620298408C13
:1018E0000099096B086000988168826A086A104351
:1018F0000862009991F8400000F0FD0081F8400076
:101900000299487F00F0F00048770299087F022290
:1019100062F31F10087703208DF80F00FFE79DF892
:101920000F0004B080BD000010B582B0019000919E
:10193000009810B3FFE70098016840F26810C2F207
:1019400000001322FEF73AFDB8B9FFE70199009CA9
:1019500020686268A368D4F80CC0D4F810E0646909
:10196000C1F8A840C1F8A4E0C1F8A0C0C1F89C30FB
:10197000C1F89820C1F89400FFE7052002B010BD1F
:1019800080B586B0059005988068049005984068F9
:1019900003900498B0F90610B0F90800884207DBFC
:1019A000FFE70499C88808810499FF2048710EE078
:1019B0000498B0F90800B0F1FF3F07DCFFE7049995
:1019C00000200881049901204871FFE7FFE704988F
:1019D00090ED030AB0F9080001EE100AB8EEC11A42
:1019E00020EE010ABDEEC00A10EE100A8DF80800C4
:1019F000049890ED040AB0F9080001EE100AB8EE60
:101A0000C11A20EE010ABDEEC00A10EE100A8DF8D0
:101A10000900049890ED050AB0F9080001EE100ADB
:101A2000B8EEC11A20EE010ABDEEC00A10EE100A8F
:101A30008DF80A00049991F905200889104408815D
:101A4000039901F15000B1F8AC309DF80A108DF8FF
:101A50000610BDF80810ADF80410019900220BF033
:101A60005BFD06B080BD000080B594B01390139864
:101A70004FF27C11C0F6000100F06AF932200390A9
:101A8000ADF84A00BDF84A0040F63403C2F2010343
:101A900003EB400040F24042C2F200020B92C2F857
:101AA000B80002F108000690C0210291A2F8BC1013
:101AB000BDF84AC00CF1C00CADF84AC0BDF84AC030
:101AC00003EB4C03C2F8703102F1C0030793A2F894
:101AD000741140F25801C2F20001019100F082F944
:101AE0000199079800F07EF902990B9A0398ADF8D6
:101AF0004A00BDF84A0040F69A33C2F2010303EBF4
:101B00004000C2F8280202F5BC70A2F82C12BDF801
:101B10004AC00CF1C00CADF84AC0BDF84AC003EB96
:101B20004C03C2F8E03202F50C730593A2F8E412FC
:101B300040F26C01C2F20001049100F053F90499E3
:101B4000059800F04FF906984FF22811C0F60001F1
:101B500000F0A0F807984FF24011C0F6000100F025
:101B600099F80B9868300BF0B9FC0B9800F158010C
:101B7000089100F590700BF0B1FC0B99089801F5F5
:101B8000887109914EF64E71C0F600018A788DF881
:101B900046200988ADF844109DF846108DF8421093
:101BA000BDF84410ADF84010109900220C920823A3
:101BB0000A930BF0B1FC0A9B0C9A09989DF8461009
:101BC0008DF83E10BDF84410ADF83C100F990BF0A5
:101BD000A3FC0A9B0C9A0B989DF846108DF83A10BE
:101BE000BDF84410ADF838100E9900F5E4700BF014
:101BF00093FC0A9B0C9A0B989DF846108DF83610B2
:101C0000BDF84410ADF834100D9900F520700BF0BC
:101C100083FC0C9814B080BD80B582B08DF80700AD
:101C20009DF807008DF8060000208DF80500FFE7FD
:101C30009DF806100020009041B1FFE79DF80510C7
:101C400000200429B8BF01200090FFE70098C007DA
:101C5000E8B1FFE79DF80600C00768B1FFE79DF80F
:101C6000050040F24042C2F20002B82110FB012000
:101C700068300BF023FCFFE79DF8060040088DF864
:101C800006009DF8050001308DF80500D0E702B090
:101C900080BD000010B584B0029001910298002828
:101CA0003FD0FFE70198E0B3FFE7029901F1600040
:101CB0000BF0D0FB029940F25810C2F20000086607
:101CC000029901F194008866029940F26810C2F20C
:101CD0000000C1F894000299019C20686268A36822
:101CE000D4F80CC0D4F810E06469C1F8A840C1F879
:101CF000A4E0C1F8A0C0C1F89C30C1F89820C1F898
:101D00009400029941F68110C0F60000C86602995D
:101D10004BF2ED50C0F60000486700208DF80F0030
:101D200003E001208DF80F00FFE79DF80F0004B0DD
:101D300010BD000080B582B003200190FFF76CFF5A
:101D400001984FF47A7100F019F902B080BD0000DB
:101D500083B00290019140F24041C2F200014FF67F
:101D6000FC00C0F600000860029848604FF2D800FE
:101D7000C0F60000C1F8080300208DF80300FFE75B
:101D80009DF80300032829DCFFE79DF80300B82134
:101D900000FB01FC40F24040C2F2000000F10802EA
:101DA0004FF61313C0F6000342F80C309DF80330D1
:101DB00013FB0123586001989DF8033013FB0123A6
:101DC00098609DF8030010FB012181F8AE00FFE749
:101DD0009DF8030001308DF80300D1E7002003B027
:101DE0007047000080B588B00690059106980028DD
:101DF00067D0FFE70598002863D0FFE705984068A3
:101E00000490059800680390039834300290039979
:101E1000086820F0010008600398406CC00BC00700
:101E200030B9FFE70399486C40F400404864FFE78D
:101E30000598007A8100012000FA01F20399086AEE
:101E40001043086202990598027A002041F82200A6
:101E50000399C86840F48070C8600399086840F02E
:101E6000010008600499086820F0010008600699E4
:101E7000B1F8B4004AF6AB22CAF6AA22A0FB0220AF
:101E80000009A1F8AC000699B1F8AC0000EB4000E5
:101E9000C000A1F8B400069901F15000059AD1F8EC
:101EA000B030B1F8B4E0EC46CCF804E0CCF8003047
:101EB00040F23023C2F200030BF0A6FB8DF81F00A6
:101EC00003E001208DF81F00FFE79DF81F0008B018
:101ED00080BD000080B586B004919DF812108DF889
:101EE0001610BDF81010ADF814108DF80F009DF805
:101EF0000F008DF80E0000208DF80D00FFE79DF813
:101F00000E100020019041B1FFE79DF80D10002058
:101F10000429B8BF01200190FFE70198C00750B322
:101F2000FFE79DF80E00C007D0B1FFE79DF80D0058
:101F300040F24042C2F20002B82110FB012101F13F
:101F40005800B1F8B4309DF816108DF80A10BDF89D
:101F50001410ADF80810029900220BF0DDFAFFE72B
:101F60009DF80E0040088DF80E009DF80D00013020
:101F70008DF80D00C3E7002006B080BD80B584B0A9
:101F80008DF80F0002919DF80F008DF807000020DA
:101F90008DF80600FFE79DF807100020009041B182
:101FA000FFE79DF8061000200429B8BF012000902B
:101FB000FFE70098C00760B3FFE79DF807008007C0
:101FC000E0B1FFE79DF8060040F24042C2F2000295
:101FD000B82110FB012058300BF0F0FA68B9FFE788
:101FE0009DF8060040F24042C2F20002B82110FB08
:101FF000012058300BF036FCFFE7FFE79DF80700A3
:1020000080088DF807009DF8060002308DF8060064
:10201000C1E7002004B080BD80B582B00190019876
:10202000806B00900098806B406D022805D0FFE720
:102030000099012081F82500FFE7009800F026FFB5
:1020400002B080BD80B584B0039000200290039858
:10205000806B01900198806A00283FD0FFE70198CB
:10206000806B0068006800F4002002900198806A8C
:10207000C007B0B9FFE7029898B1FFE70198806BFD
:102080000068C0680290019A906B0299D26A01EBD5
:10209000C201002201F084FA0199886A013888623D
:1020A0001BE00198806B006800680003002813D4CF
:1020B000FFE70198806B006800690290019A906BBD
:1020C0000299D26A01EBC201012201F069FA019979
:1020D000886A01388862FFE7FFE727E00198806B94
:1020E000006800680003002806D5FFE70199486BE7
:1020F000896B0968C86018E00198806B0068006807
:102100000003002810D4FFE70198406B029002986A
:102110000199C96A00EB81000199896B096808611E
:102120000199086B8862FFE7FFE7FFE70198806A83
:102130000199096B884213D1FFE701980168C868CB
:1021400040F00100C860019800680068800700281E
:1021500005D5FFE70199012081F82500FFE7FFE79A
:1021600004B080BD80B540F65070C2F2010000F0AE
:1021700095FE80BD80B541F27010C2F2010003F0FF
:10218000D7FA80BD80B541F2D010C2F2010003F051
:10219000CFFA80BD80B541F25000C2F2010003F0D9
:1021A000C7FA80BD80B541F2B000C2F2010003F071
:1021B000BFFA80BD80B541F21010C2F2010003F0F9
:1021C000B7FA80BD80B540F69070C2F2010003F00E
:1021D000AFFA80BD80B540F6F070C2F2010003F0A6
:1021E000A7FA80BD82B001900198007810384AF6B5
:1021F000AB21CAF6AA21A0FB0110000900900099AA
:102200004FF22010C0F60000405C0199C8650098AC
:10221000042807D3FFE701990868042262F3090044
:10222000886506E00199086840F2FF3290438865AE
:10223000FFE70198806D02B07047000086B00590FE
:1022400000208DF813000598806A03900598806936
:1022500010BBFFE70398029003281BD80299DFE820
:1022600001F0020D0218059890F82F00C00720B168
:10227000FFE701208DF81300FFE70CE00598C06A26
:10228000B0F1C07F04D1FFE701208DF81300FFE714
:1022900001E000E0FFE745E005988069B0F5005FE8
:1022A00025D1FFE70398019003281ED80199DFE8A4
:1022B00001F00206021101208DF8130016E00598C6
:1022C00090F82F00C00720B1FFE701208DF8130020
:1022D000FFE70BE00598C06AB0F1C07F04D1FFE7CB
:1022E00001208DF81300FFE700E0FFE719E00398F5
:1022F0000090032804D3FFE70098032804D00EE0E1
:1023000001208DF813000BE0059890F82F00C0070E
:1023100020B1FFE701208DF81300FFE700E0FFE7A1
:10232000FFE7FFE79DF8130006B0704784B0039005
:1023300002910192009300980399096848600398FC
:102340008068402809D1FFE70198039909688860EF
:10235000029803990968C86008E00298039909681F
:102360008860019803990968C860FFE704B0704766
:1023700084B0039002910192009303980168086869
:1023800020F4802008600098039909684860039849
:102390008068402809D1FFE701980399096888609F
:1023A000029803990968C86008E0029803990968CF
:1023B0008860019803990968C860FFE704B0704716
:1023C00081B0EFF3108072B60090FFE7FEE70000E7
:1023D00084B003908DF80B1001920093FFE704B0D6
:1023E0007047000080B586B005908DF813100392F9
:1023F00002930598806801909DF8130001460091B2
:1024000020B1FFE70098012807D00DE005981430AF
:102410000399029A09F0D0F906E00598143003995F
:10242000029A09F0C9F9FFE706B080BD84B00390B5
:102430008DF80B1001920093FFE704B07047000085
:1024400080B586B005908DF813100392029305981D
:10245000006901909DF81300012825D1FFE701983C
:102460000068C068C009C007E8B1FFE701980068CC
:102470000068C009C007B0B1FFE70198C16C006DEA
:10248000884208D0FFE7019840300BF0D7FA019955
:102490000968486006E001980168C86820F080007B
:1024A000C860FFE7FFE700E0FFE706B080BD00007F
:1024B00080B584B003908DF80B10019200939DF8C5
:1024C0000B00012808D1FFE7039A02F13000516E9A
:1024D000D26E0BF0E9FE00E0FFE704B080BD000023
:1024E00085B004908DF80F10029201930498006952
:1024F00000909DF80F00012801D1FFE700E0FFE701
:1025000005B0704784B003908DF80B1001920093D2
:1025100004B0704784B003908DF80B1001920093C3
:10252000FFE704B07047000084B003908DF80B10F3
:102530000192009304B0704784B003908DF80B10A3
:1025400001920093FFE704B07047000080B586B0A9
:1025500005908DF81310039202939DF81300014625
:102560000191012808D0FFE7019803281AD0FFE75E
:10257000019805282CD041E00598006B88B1FFE751
:102580000599086B406901F11C036A46042111603A
:1025900042F23541C5F2885142F211720BF056FDFC
:1025A000FFE72CE00598006B88B1FFE70599086B01
:1025B000406901F11C036A460421116042F2354171
:1025C000C5F2885142F212720BF040FDFFE716E0AF
:1025D0000598006B88B1FFE70599086B406901F128
:1025E0001C036A460421116042F23541C5F288514C
:1025F00042F213720BF02AFDFFE700E0FFE706B09E
:1026000080BD000085B004908DF80F1002920193F8
:10261000049800690090FFE705B0704784B003900C
:102620008DF80B100192009304B0704784B00390B2
:102630008DF80B1001920093FFE704B07047000083
:1026400084B003908DF80B1001920093FFE704B063
:102650007047000084B003908DF80B100192009336
:10266000FFE704B07047000080B582B00190019888
:10267000006800900198006900993C3108220BF035
:10268000FDFA02B080BD000080B58AB009900998BB
:10269000006808900899086A496A019100900898B2
:1026A000406C02900898806C03900898C06C04906D
:1026B0000898806D059008980421FEF7D7FE0690D3
:1026C00009980069694620220BF0D8FA0AB080BD4B
:1026D00080B582B00190019800680090019800696F
:1026E0000099283114220BF0C9FA02B080BD000015
:1026F00080B582B00190019800680090019800694F
:102700000099203104220BF0B9FA02B080BD00001C
:1027100080B586B005900598006804900498406CD8
:1027200001900498806C029004980421FEF79EFEAC
:1027300003900598006901A90C220BF09FFA06B0DE
:1027400080BD000080B582B0019000208DF80300AC
:10275000FFE79DF80300032816DCFFE701980069F6
:102760009DF8031040F24043C2F20003B82211FB6F
:102770000231543104220BF081FAFFE79DF8030087
:1027800001308DF80300E4E702B080BD80B582B06F
:10279000019001980068009001980069009920312B
:1027A00008220BF06BFA02B080BD000080B582B049
:1027B00001900198006800900198006900991C310F
:1027C00004220BF05BFA02B080BD000080B582B03D
:1027D000019001980068009001980069009970319B
:1027E00008220BF04BFA02B080BD000080B582B029
:1027F000019000208DF80300FFE79DF803000328F7
:1028000016DCFFE7019800699DF8031040F2404391
:10281000C2F20003B82211FB0231A03101220BF0F9
:102820002DFAFFE79DF8030001308DF80300E4E77F
:1028300002B080BD82B001908DF80310002002B07C
:102840007047000082B001908DF80310FFE7002070
:1028500002B0704782B001908DF80310002002B0E2
:102860007047000085B003908DF80B100398C06886
:1028700001909DF80B0001460091022804D0FFE76B
:102880000098032805D009E00198806880680490CA
:1028900007E001988068C068049002E0002004907E
:1028A000FFE7049805B0704780B586B004908DF8B6
:1028B0000F100498006902909DF80F0001460191E5
:1028C000012808D0FFE70198022816D0FFE70198F9
:1028D000032817D01CE002980068C168022000EAB3
:1028E00091120499087B00F0E100104408730498E9
:1028F000007BC0F3430005900DE00298406D01306D
:10290000059008E0029840300BF0AEF8059002E028
:1029100000200590FFE7059806B080BD85B00390C4
:102920008DF80B100398006901909DF80B00023898
:102930000146009108282CD80099DFE801F0161E06
:1029400009220512261A0D000198007F049023E049
:102950000198807E04901FE0019890F82000049078
:102960001AE00198407F049016E00198007E0490E0
:1029700012E00198C07F04900EE00198407E049020
:102980000AE00198C07E049006E00198807F0490E0
:1029900002E000200490FFE7049805B070470000B3
:1029A00087B005908DF813100598406B039003983D
:1029B000406802909DF813000146019120B1FFE7A5
:1029C0000198012805D01FE003980068C06A0690AE
:1029D0001EE0029841680020009031B1FFE70298A4
:1029E000006800F001000090FFE7009800F001028D
:1029F0000599087A00F01F0040EA42100872059815
:102A0000007A4009069003E04FF0FF300690FFE7A0
:102A1000069807B07047000085B003908DF80B1042
:102A20000398406901909DF80B000146009104282D
:102A300004D0FFE70098052805D008E00198C06899
:102A4000406A049007E00198C06B049003E0FFE740
:102A500000200490FFE7049805B0704783B002900F
:102A60008DF80710029800690090FFE7002003B07E
:102A70007047000082B001908DF80310FFE700203E
:102A800002B0704782B001908DF80310FFE700207C
:102A900002B0704782B001908DF80310FFE700206C
:102AA00002B0704785B00390029100200190FFE7CB
:102AB000039890F83C00012804D1FFE702208DF82C
:102AC000130007E10399012081F83C00FFE7FFE7CD
:102AD000029800680A281CD3FFE70298008800EBE0
:102AE0004000A0F11E01072000FA01F203980168DE
:102AF000C8689043C86002998868098801EB410161
:102B00001E3900FA01F203980168C8681043C860D2
:102B100018E00298008800EB4001072000FA01F25B
:102B200003980168086990430861029988680988D8
:102B300001EB410100FA01F20398016808691043B2
:102B40000861FFE70298406806281BD8FFE7029853
:102B5000406800EB8000411F1F2000FA01F203983B
:102B60000168486B9043486302990888496801EB03
:102B70008101053900FA01F203980168486B10439E
:102B800048633DE0029840680C281CD8FFE7029893
:102B9000406800EB8000A0F123011F2000FA01F241
:102BA00003980168086B9043086302990888496894
:102BB00001EB8101233900FA01F203980168086BE7
:102BC000104308631BE00298406800EB8000A0F10E
:102BD00041011F2000FA01F203980168C86A90437E
:102BE000C86202990888496801EB8101413900FAFD
:102BF00001F203980168C86A1043C862FFE7FFE763
:102C000042F20030C4F2010000900398006842F2E2
:102C10000001C4F20101884210D1FFE70298006868
:102C200012280BD1FFE70099486820F400004860A3
:102C30000099486840F480004860FFE70398006806
:102C400042F20001C4F20101884239D1FFE7029843
:102C500000681221C1F20001884205D0FFE7029806
:102C6000006811282CD1FFE70099486820F4800003
:102C700048600099486840F4000048600298006885
:102C80001221C1F20001884219D1FFE740F21C2055
:102C9000C2F2000000684DF68361C4F21B31A0FB54
:102CA0000110800C00EB800040000190FFE70198CC
:102CB00020B1FFE7019801380190F8E7FFE7FFE74F
:102CC000FFE70399002081F83C00FFE700208DF822
:102CD0001300FFE79DF8130005B0704780B584B07E
:102CE000029000208DF80700029820B9FFE701202C
:102CF0008DF80F0042E00298806A0121C0F6007151
:102D0000884201D0FFE7FFE70298006C50B9FFE767
:102D1000029800F037F8029900204864029981F87F
:102D20003C00FFE70298006CC006002817D4FFE7BC
:102D30000298006C40F0020020F488500299086468
:102D40000298FDF761FC0299002048640298006C2B
:102D500040F0010020F002000299086403E0012025
:102D60008DF80700FFE7FFE70299002081F83C009B
:102D7000FFE79DF807008DF80F00FFE79DF80F00B3
:102D800004B080BD80B588B0079000200690059003
:102D90000490039002900798006842F20001C4F288
:102DA000010188422FD1FFE7FFE70020019043F6A1
:102DB0004400C4F20200016841F4807101600068BF
:102DC00000F4807001900198FFE7FFE70020009079
:102DD00043F63000C4F20200016841F001010160D5
:102DE000006800F0010000900098FFE702200290C8
:102DF00003200390002004900020C4F2020002A9E6
:102E000002F0AAFFFFE708B080BD000080B582B0E5
:102E10000090009820B9FFE701208DF8070011E02D
:102E20000098407938B9FFE70099002008710098B0
:102E300000F00CF8FFE700990120487100208DF8A0
:102E40000700FFE79DF8070002B080BD82B0019047
:102E50000198006843F20001C4F20201884212D1D5
:102E6000FFE7FFE70020009043F63000C4F20200C5
:102E7000016841F480510160006800F480500090C6
:102E80000098FFE7FFE702B07047000081B00090B4
:102E900001B0704781B0009001B0704780B582B03A
:102EA000019001980068006900909DF800004007BB
:102EB000002818D5FFE70198016804204861019AAD
:102EC000D16B41F00201D163019981F8250001988D
:102ED000816B42F21900C0F6000008650198806B12
:102EE00002F004FCFFE79DF800008007002819D5D8
:102EF000FFE701980168022048610199C86B40F022
:102F00000100C8630199042081F825000198816BB4
:102F100042F21900C0F6000008650198806B02F0CB
:102F2000E5FBFFE79DF80000C006002808D5FFE795
:102F30000198016810204861019800F08BF8FFE7C4
:102F40009DF800000007002808D5FFE701980168F8
:102F500008204861019800F01FFBFFE79DF8000082
:102F6000C007C0B1FFE7019800680068800700282B
:102F700007D5FFE701980168C86820F01E00C86007
:102F8000FFE701980168C86820F00100C860019857
:102F9000FFF780FFFFE702B080BD000080B584B07E
:102FA0000290029820B9FFE701208DF80F004DE054
:102FB000029890F8250058B9FFE70299002081F89F
:102FC0002400029800F04AF8029800F047F8FFE762
:102FD0000299022081F8250002980168086840F6ED
:102FE000F87290430860029A0192D2F814E01168D6
:102FF00050689368D2F80CC040EA0E0040EA0C001A
:10300000D2F810C040EA0C00184393691843126AC2
:10301000024308681043086002984068102805D1F0
:10302000FFE702980168C0698861FFE702980168BC
:10303000C86840F01E00C86002990020C863029A68
:10304000012182F825108DF80F00FFE79DF80F0091
:1030500004B080BD81B0009001B0704780B594B0DD
:10306000139000201290119010900F900E901398D2
:1030700000680021C5F20501884240F01C81FFE78D
:10308000FFE700200D9043F63400C4F2020001680F
:1030900041F001010160006800F001000D900D9801
:1030A000FFE7FFE700200C9043F63000C4F2020077
:1030B000016841F010010160006800F010000C9000
:1030C0000C98FFE7FFE700200B9043F63000C4F2B6
:1030D0000200016841F001010160006800F0010098
:1030E0000B900B98FFE7FFE700200A9043F63000B3
:1030F000C4F20200016841F004010160006800F0C0
:1031000004000A900A98FFE7FFE70020099043F6C1
:103110003000C4F20200016841F00801016000685B
:1031200000F0080009900998FFE7FFE700200890E9
:1031300043F63000C4F20200016841F04001016032
:10314000006800F0400008900898FFE7FFE70020C3
:10315000079043F63000C4F20200016841F002011A
:103160000160006800F0020007900798FFE7102058
:103170000E90022002900F90002005901090119068
:103180000D200390129041F20000C4F202000EA93B
:10319000049102F0E1FD029B03980499059A4FF017
:1031A000500CCDF838C00F9310921192129000205D
:1031B000C4F2020002F0D0FD029B03980499059A24
:1031C0004FF0C00CCDF838C00F93109211921290AE
:1031D00040F60000C4F2020002F0BEFD029B03981C
:1031E0000499059A4FF0080CCDF838C00F9310924F
:1031F0001192129040F60040C4F2020002F0ACFDC1
:10320000029B03980499059A4FF4606CCDF838C07E
:103210000F9310921192129041F60000C4F2020036
:1032200002F09AFD029B03980499059A4FF4407CA2
:10323000CDF838C00F9310921192129040F20040D6
:10324000C4F2020002F088FD059940F69070C2F2C7
:103250000100069046F22842C4F2020202604FF0DA
:10326000007242608160C1604FF4806202614FF47D
:10327000805242614FF480428261C16101624162C9
:1032800002F0E6FB18B1FFE7FFF79AF8FFE7FFE768
:10329000139840F69071C2F201018163139888631C
:1032A000FFE74E2001900821002203F02DFD019838
:1032B00003F020FDFFE714B080BD000080B588B0AA
:1032C000069005910492039300200290FFE7069870
:1032D00090F82400012804D1FFE702208DF81F0098
:1032E00090E00699012081F82400FFE7FFE70699A6
:1032F000022081F8250006980168086840F48040A3
:10330000086006980168086820F002000860059AC5
:10331000069801680868104308600698816B42F2BD
:103320004500C0F60000C8630698816B42F21900A0
:10333000C0F60000C8640698816B002008650699F5
:10334000886206990863BDF80E0048B9FFE7069841
:103350000168806B2831049A039B02F079FC41E0FC
:103360000698816B42F24500C0F600004864069959
:103370000120886203980699C862049806994863F8
:10338000FFE70698C06AB0F5803F0BD3FFE70698C9
:10339000C06A40080699C8620698806A400006998B
:1033A0008862EEE70698806A023806998862069875
:1033B000806A0699086304980699C96A00EB81003F
:1033C0000290DDF818C0DCF80010DCF83800283175
:1033D000049A029BDCF82CC0EE46CEF800C000F048
:1033E000F5F8FFE706980168086840F001000860FA
:1033F000FFE70699002081F82400FFE700208DF800
:103400001F00FFE79DF81F0008B080BD80B584B0A5
:10341000029040F21C20C2F200000068400842F214
:103420009341C9F24921A0FB0110800801900020BE
:103430008DF80300FFE7029890F82400012804D1DA
:10344000FFE702208DF80F0042E00299012081F889
:103450002400FFE7FFE70299022081F82500029887
:103460000168086820F001000860FFE70198411E2C
:10347000019148B9FFE70299C86B40F02000C8638A
:1034800003208DF8030007E0FFE70298006800685A
:10349000C0070028EAD1FFE702980168086820F415
:1034A000804008600298806B02F0AAF80299C86B0D
:1034B000C8630299012081F82500FFE702990020E6
:1034C00081F82400FFE79DF803008DF80F00FFE767
:1034D0009DF80F0004B080BD84B0029040F21C2023
:1034E000C2F200000068400842F29341C9F249214B
:1034F000A0FB01108008019000208DF80300FFE779
:10350000029890F82400012804D1FFE702208DF8EA
:103510000F003CE00299012081F82400FFE7FFE75B
:10352000029890F82500022826D1FFE7029905208D
:1035300081F8250002980168086820F00100086001
:10354000FFE70198411E019168B9FFE70299C86B36
:1035500040F02000C8630299012081F82500032073
:103560008DF8030007E0FFE7029800680068C007D5
:103570000028E6D1FFE7FFE7FFE70299002081F886
:103580002400FFE79DF803008DF80F00FFE79DF88A
:103590000F0004B07047000081B0009001B0704788
:1035A00083B0029001918DF803209DF8030028B9A3
:1035B000FFE7019802990968C86004E00198029940
:1035C00009680861FFE7002003B0704780B5ADF5DA
:1035D0006C7DDDF8B8C3EA90E991E892E7930020AA
:1035E0008DF89B03EA988068802809D1FFE7EA9963
:1035F0004FF48070486501208DF8AF0301F0FBBFE8
:10360000EA98C06B40B1FFE7EA98406C20B1FFE751
:10361000EA98C06C40B9FFE7EA994020486501206C
:103620008DF8AF0301F0E7BFFFE7EA9890F83400A8
:10363000012805D1FFE702208DF8AF0301F0DBBFC1
:10364000EA99012081F83400FFE7FFE7EA9890F853
:103650003500012841F0C087FFE7EA99022081F890
:103660003500EA9900204865EA980168086840F446
:1036700080200860E798EA9909680861EA98E99962
:10368000E89AEE9BFEF752FEEA98006846F259412E
:10369000C4F202018842C0F0BF80FFE7EA980068E8
:1036A00046F21001C4F20201884203D1FFE7202054
:1036B000E590AAE0EA98006846F21041C4F20201DF
:1036C000884203D1FFE72020E4909BE0EA9800685D
:1036D00046F27001C4F20201884203D1FFE72020C4
:1036E000E3908CE0EA98006846F27041C4F202016F
:1036F000884203D1FFE72020E2907DE0EA9800684D
:1037000046F22801C4F20201884204D1FFE74FF4D7
:103710000060E1906DE0EA98006846F22841C4F24A
:103720000201884204D1FFE74FF40060E0905DE0C1
:10373000EA98006846F28801C4F20201884204D186
:10374000FFE74FF40060DF904DE0EA98006846F232
:103750008841C4F20201884204D1FFE74FF40060BF
:10376000DE903DE0EA98006846F24001C4F20201B2
:10377000884204D1FFE74FF40010DD902DE0EA9875
:10378000006846F24041C4F20201884204D1FFE7DA
:103790004FF40010DC901DE0EA98006846F2A001AA
:1037A000C4F20201884204D1FFE74FF40010DB901D
:1037B0000DE0EA98016846F2A042C4F202024FF01E
:1037C0000060914208BF4FF40010DB90FFE7DB98E8
:1037D000DC90FFE7DC98DD90FFE7DD98DE90FFE707
:1037E000DE98DF90FFE7DF98E090FFE7E098E19058
:1037F000FFE7E198E290FFE7E298E390FFE7E398C4
:10380000E490FFE7E498E590FFE7E59846F20C4185
:10381000C4F20201086055E2EA98006846F2B90174
:10382000C4F202018842C0F0C080FFE7EA98006855
:1038300046F21001C4F20201884203D1FFE72020C2
:10384000DA90AAE0EA98006846F21041C4F2020158
:10385000884203D1FFE72020D9909BE0EA980068D6
:1038600046F27001C4F20201884203D1FFE7202032
:10387000D8908CE0EA98006846F27041C4F20201E8
:10388000884203D1FFE72020D7907DE0EA980068C6
:1038900046F22801C4F20201884204D1FFE74FF446
:1038A0000060D6906DE0EA98006846F22841C4F2C4
:1038B0000201884204D1FFE74FF40060D5905DE03B
:1038C000EA98006846F28801C4F20201884204D1F5
:1038D000FFE74FF40060D4904DE0EA98006846F2AC
:1038E0008841C4F20201884204D1FFE74FF400602E
:1038F000D3903DE0EA98006846F24001C4F202012C
:10390000884204D1FFE74FF40010D2902DE0EA98EE
:10391000006846F24041C4F20201884204D1FFE748
:103920004FF40010D1901DE0EA98006846F2A00123
:10393000C4F20201884204D1FFE74FF40010D09096
:103940000DE0EA98016846F2A042C4F202024FF08C
:103950000060914208BF4FF40010D090FFE7D0986C
:10396000D190FFE7D198D290FFE7D298D390FFE7AC
:10397000D398D490FFE7D498D590FFE7D598D69008
:10398000FFE7D698D790FFE7D798D890FFE7D89869
:10399000D990FFE7D998DA90FFE7DA9846F2084124
:1039A000C4F202010860CF908AE1EA98006846F20A
:1039B0005901C4F202018842C0F0C080FFE7EA98D2
:1039C000006846F21001C4F20201884203D1FFE709
:1039D0002020CE90AAE0EA98006846F21041C4F296
:1039E0000201884203D1FFE72020CD909BE0EA98B6
:1039F000006846F27001C4F20201884203D1FFE779
:103A00002020CC908CE0EA98006846F27041C4F225
:103A10000201884203D1FFE72020CB907DE0EA98A5
:103A2000006846F22801C4F20201884204D1FFE78F
:103A30004FF40060CA906DE0EA98006846F22841B1
:103A4000C4F20201884204D1FFE74FF40060C9903C
:103A50005DE0EA98006846F28801C4F202018842FB
:103A600004D1FFE74FF40060C8904DE0EA98006889
:103A700046F28841C4F20201884204D1FFE74FF4C4
:103A80000060C7903DE0EA98006846F24001C4F249
:103A90000201884204D1FFE74FF40010C6902DE0E8
:103AA000EA98006846F24041C4F20201884204D11B
:103AB000FFE74FF40010C5901DE0EA98006846F259
:103AC000A001C4F20201884204D1FFE74FF40010C4
:103AD000C4900DE0EA98016846F2A042C4F20202E6
:103AE0004FF00060914208BF4FF40010C490FFE710
:103AF000C498C590FFE7C598C690FFE7C698C790E1
:103B0000FFE7C798C890FFE7C898C990FFE7C99832
:103B1000CA90FFE7CA98CB90FFE7CB98CC90FFE71D
:103B2000CC98CD90FFE7CD98CE90FFE7CE9846F2A7
:103B30000C01C4F202010860C390BEE0EA9800687C
:103B400046F21001C4F20201884203D1FFE72020AF
:103B5000C290AAE0EA98006846F21041C4F202015D
:103B6000884203D1FFE72020C1909BE0EA980068DB
:103B700046F27001C4F20201884203D1FFE720201F
:103B8000C0908CE0EA98006846F27041C4F20201ED
:103B9000884203D1FFE72020BF907DE0EA980068CB
:103BA00046F22801C4F20201884204D1FFE74FF433
:103BB0000060BE906DE0EA98006846F22841C4F2C9
:103BC0000201884204D1FFE74FF40060BD905DE040
:103BD000EA98006846F28801C4F20201884204D1E2
:103BE000FFE74FF40060BC904DE0EA98006846F2B1
:103BF0008841C4F20201884204D1FFE74FF400601B
:103C0000BB903DE0EA98006846F24001C4F2020130
:103C1000884204D1FFE74FF40010BA902DE0EA98F3
:103C2000006846F24041C4F20201884204D1FFE735
:103C30004FF40010B9901DE0EA98006846F2A00128
:103C4000C4F20201884204D1FFE74FF40010B8909B
:103C50000DE0EA98016846F2A042C4F202024FF079
:103C60000060914208BF4FF40010B890FFE7B89889
:103C7000B990FFE7B998BA90FFE7BA98BB90FFE711
:103C8000BB98BC90FFE7BC98BD90FFE7BD98BE9085
:103C9000FFE7BE98BF90FFE7BF98C090FFE7C098CE
:103CA000C190FFE7C198C290FFE7C29846F20801B1
:103CB000C4F202010860C390FFE7C398CF90FFE70A
:103CC000CF98FFE7EA98006846F25941C4F2020132
:103CD0008842C0F0BF80FFE7EA98006846F2100112
:103CE000C4F20201884203D1FFE71020B790AAE096
:103CF000EA98006846F21041C4F20201884203D1FA
:103D0000FFE71020B6909BE0EA98006846F2700149
:103D1000C4F20201884203D1FFE71020B5908CE085
:103D2000EA98006846F27041C4F20201884203D169
:103D3000FFE71020B4907DE0EA98006846F2280181
:103D4000C4F20201884204D1FFE74FF48060B390CF
:103D50006DE0EA98006846F22841C4F20201884208
:103D600004D1FFE74FF48060B2905DE0EA9800680C
:103D700046F28801C4F20201884204D1FFE74FF401
:103D80008060B1904DE0EA98006846F28841C4F244
:103D90000201884204D1FFE74FF48060B0903DE01B
:103DA000EA98006846F24001C4F20201884204D158
:103DB000FFE74FF48010AF902DE0EA98006846F2DC
:103DC0004041C4F20201884204D1FFE74FF4801061
:103DD000AE901DE0EA98006846F2A001C4F202012C
:103DE000884204D1FFE74FF48010AD900DE0EA98CF
:103DF000016846F2A042C4F202024FF08060914294
:103E000008BF4FF48010AD90FFE7AD98AE90FFE78C
:103E1000AE98AF90FFE7AF98B090FFE7B098B19041
:103E2000FFE7B198B290FFE7B298B390FFE7B3987D
:103E3000B490FFE7B498B590FFE7B598B690FFE768
:103E4000B698B790FFE7B79846F20C41C4F202016A
:103E5000086055E2EA98006846F2B901C4F202012E
:103E60008842C0F0C080FFE7EA98006846F210017F
:103E7000C4F20201884203D1FFE71020AC90AAE00F
:103E8000EA98006846F21041C4F20201884203D168
:103E9000FFE71020AB909BE0EA98006846F27001C3
:103EA000C4F20201884203D1FFE71020AA908CE0FF
:103EB000EA98006846F27041C4F20201884203D1D8
:103EC000FFE71020A9907DE0EA98006846F22801FB
:103ED000C4F20201884204D1FFE74FF48060A89049
:103EE0006DE0EA98006846F22841C4F20201884277
:103EF00004D1FFE74FF48060A7905DE0EA98006886
:103F000046F28801C4F20201884204D1FFE74FF46F
:103F10008060A6904DE0EA98006846F28841C4F2BD
:103F20000201884204D1FFE74FF48060A5903DE094
:103F3000EA98006846F24001C4F20201884204D1C6
:103F4000FFE74FF48010A4902DE0EA98006846F255
:103F50004041C4F20201884204D1FFE74FF48010CF
:103F6000A3901DE0EA98006846F2A001C4F20201A5
:103F7000884204D1FFE74FF48010A2900DE0EA9848
:103F8000016846F2A042C4F202024FF08060914202
:103F900008BF4FF48010A290FFE7A298A390FFE71C
:103FA000A398A490FFE7A498A590FFE7A598A690F2
:103FB000FFE7A698A790FFE7A798A890FFE7A89823
:103FC000A990FFE7A998AA90FFE7AA98AB90FFE70E
:103FD000AB98AC90FFE7AC9846F20841C4F20201FE
:103FE0000860A1908AE1EA98006846F25901C4F29B
:103FF00002018842C0F0C080FFE7EA98006846F2FC
:104000001001C4F20201884203D1FFE71020A09002
:10401000AAE0EA98006846F21041C4F20201884220
:1040200003D1FFE710209F909BE0EA98006846F2DA
:104030007001C4F20201884203D1FFE710209E9074
:104040008CE0EA98006846F27041C4F202018842AE
:1040500003D1FFE710209D907DE0EA98006846F2CA
:104060002801C4F20201884204D1FFE74FF48060C6
:104070009C906DE0EA98006846F22841C4F2020183
:10408000884204D1FFE74FF480609B905DE0EA989E
:10409000006846F28801C4F20201884204D1FFE7B9
:1040A0004FF480609A904DE0EA98006846F28841AB
:1040B000C4F20201884204D1FFE74FF48060999076
:1040C0003DE0EA98006846F24001C4F202018842ED
:1040D00004D1FFE74FF4801098902DE0EA98006833
:1040E00046F24041C4F20201884204D1FFE74FF496
:1040F000801097901DE0EA98006846F2A001C4F293
:104100000201884204D1FFE74FF4801096900DE041
:10411000EA98016846F2A042C4F202024FF08060C1
:10412000914208BF4FF480109690FFE796989790C1
:10413000FFE797989890FFE798989990FFE79998EC
:104140009A90FFE79A989B90FFE79B989C90FFE7D7
:104150009C989D90FFE79D989E90FFE79E989F906A
:10416000FFE79F98A090FFE7A09846F20C01C4F2E9
:10417000020108609590BEE0EA98006846F21001DE
:10418000C4F20201884203D1FFE710209490AAE014
:10419000EA98006846F21041C4F20201884203D155
:1041A000FFE7102093909BE0EA98006846F27001C8
:1041B000C4F20201884203D1FFE7102092908CE004
:1041C000EA98006846F27041C4F20201884203D1C5
:1041D000FFE7102091907DE0EA98006846F2280100
:1041E000C4F20201884204D1FFE74FF4806090904E
:1041F0006DE0EA98006846F22841C4F20201884264
:1042000004D1FFE74FF480608F905DE0EA9800688A
:1042100046F28801C4F20201884204D1FFE74FF45C
:1042200080608E904DE0EA98006846F28841C4F2C2
:104230000201884204D1FFE74FF480608D903DE099
:10424000EA98006846F24001C4F20201884204D1B3
:10425000FFE74FF480108C902DE0EA98006846F25A
:104260004041C4F20201884204D1FFE74FF48010BC
:104270008B901DE0EA98006846F2A001C4F20201AA
:10428000884204D1FFE74FF480108A900DE0EA984D
:10429000016846F2A042C4F202024FF080609142EF
:1042A00008BF4FF480108A90FFE78A988B90FFE751
:1042B0008B988C90FFE78C988D90FFE78D988E906F
:1042C000FFE78E988F90FFE78F989090FFE7909888
:1042D0009190FFE791989290FFE792989390FFE773
:1042E00093989490FFE7949846F20801C4F2020173
:1042F00008609590FFE79598A190FFE7A198FFE7E8
:10430000EA98006846F25941C4F202018842C0F0BE
:10431000BF80FFE7EA98006846F21001C4F202018C
:10432000884203D1FFE708208990AAE0EA98006854
:1043300046F21041C4F20201884203D1FFE708208F
:1043400088909BE0EA98006846F27001C4F202018E
:10435000884203D1FFE7082087908CE0EA98006844
:1043600046F27041C4F20201884203D1FFE70820FF
:1043700086907DE0EA98006846F22801C4F20201C6
:10438000884204D1FFE74FF4007085906DE0EA9811
:10439000006846F22841C4F20201884204D1FFE7D6
:1043A0004FF4007084905DE0EA98006846F288015E
:1043B000C4F20201884204D1FFE74FF400708390F9
:1043C0004DE0EA98006846F28841C4F20201884252
:1043D00004D1FFE74FF4007082903DE0EA98006856
:1043E00046F24001C4F20201884204D1FFE74FF4D3
:1043F000002081902DE0EA98006846F24041C4F226
:104400000201884204D1FFE74FF4002080901DE0B4
:10441000EA98006846F2A001C4F20201884204D181
:10442000FFE74FF400207F900DE0EA98016846F224
:10443000A042C4F202024FF00070914208BF4FF454
:1044400000207F90FFE77F988090FFE78098819021
:10445000FFE781988290FFE782988390FFE7839837
:104460008490FFE784988590FFE785988690FFE722
:1044700086988790FFE787988890FFE788988990CB
:10448000FFE7899846F20C41C4F20201086055E248
:10449000EA98006846F2B901C4F202018842C0F00D
:1044A000C080FFE7EA98006846F21001C4F20201FA
:1044B000884203D1FFE708207E90AAE0EA980068CE
:1044C00046F21041C4F20201884203D1FFE70820FE
:1044D0007D909BE0EA98006846F27001C4F2020108
:1044E000884203D1FFE708207C908CE0EA980068BE
:1044F00046F27041C4F20201884203D1FFE708206E
:104500007B907DE0EA98006846F22801C4F202013F
:10451000884204D1FFE74FF400707A906DE0EA988A
:10452000006846F22841C4F20201884204D1FFE744
:104530004FF4007079905DE0EA98006846F28801D7
:10454000C4F20201884204D1FFE74FF40070789072
:104550004DE0EA98006846F28841C4F202018842C0
:1045600004D1FFE74FF4007077903DE0EA980068CF
:1045700046F24001C4F20201884204D1FFE74FF441
:10458000002076902DE0EA98006846F24041C4F29F
:104590000201884204D1FFE74FF4002075901DE02E
:1045A000EA98006846F2A001C4F20201884204D1F0
:1045B000FFE74FF4002074900DE0EA98016846F29E
:1045C000A042C4F202024FF00070914208BF4FF4C3
:1045D00000207490FFE774987590FFE775987690C7
:1045E000FFE776987790FFE777987890FFE77898DD
:1045F0007990FFE779987A90FFE77A987B90FFE7C8
:104600007B987C90FFE77C987D90FFE77D987E907B
:10461000FFE77E9846F20841C4F2020108607390F9
:104620008AE1EA98006846F25901C4F20201884220
:10463000C0F0C080FFE7EA98006846F21001C4F2BB
:104640000201884203D1FFE708207290AAE0EA98AD
:10465000006846F21041C4F20201884203D1FFE72C
:10466000082071909BE0EA98006846F27001C4F25D
:104670000201884203D1FFE7082070908CE0EA989D
:10468000006846F27041C4F20201884203D1FFE79C
:1046900008206F907DE0EA98006846F22801C4F295
:1046A0000201884204D1FFE74FF400706E906DE084
:1046B000EA98006846F22841C4F20201884204D117
:1046C000FFE74FF400706D905DE0EA98006846F2F5
:1046D0008801C4F20201884204D1FFE74FF4007060
:1046E0006C904DE0EA98006846F28841C4F20201FD
:1046F000884204D1FFE74FF400706B903DE0EA98E8
:10470000006846F24001C4F20201884204D1FFE78A
:104710004FF400206A902DE0EA98006846F240418C
:10472000C4F20201884204D1FFE74FF400206990EF
:104730001DE0EA98006846F2A001C4F20201884236
:1047400004D1FFE74FF4002068900DE0EA9801687B
:1047500046F2A042C4F202024FF00070914208BF3C
:104760004FF400206890FFE768986990FFE7699828
:104770006A90FFE76A986B90FFE76B986C90FFE791
:104780006C986D90FFE76D986E90FFE76E986F9054
:10479000FFE76F987090FFE770987190FFE771984E
:1047A0007290FFE7729846F20C01C4F202010860B1
:1047B0006790BEE0EA98006846F21001C4F2020178
:1047C000884203D1FFE708206690AAE0EA980068D3
:1047D00046F21041C4F20201884203D1FFE70820EB
:1047E00065909BE0EA98006846F27001C4F202010D
:1047F000884203D1FFE7082064908CE0EA980068C3
:1048000046F27041C4F20201884203D1FFE708205A
:1048100063907DE0EA98006846F22801C4F2020144
:10482000884204D1FFE74FF4007062906DE0EA988F
:10483000006846F22841C4F20201884204D1FFE731
:104840004FF4007061905DE0EA98006846F28801DC
:10485000C4F20201884204D1FFE74FF40070609077
:104860004DE0EA98006846F28841C4F202018842AD
:1048700004D1FFE74FF400705F903DE0EA980068D4
:1048800046F24001C4F20201884204D1FFE74FF42E
:1048900000205E902DE0EA98006846F24041C4F2A4
:1048A0000201884204D1FFE74FF400205D901DE033
:1048B000EA98006846F2A001C4F20201884204D1DD
:1048C000FFE74FF400205C900DE0EA98016846F2A3
:1048D000A042C4F202024FF00070914208BF4FF4B0
:1048E00000205C90FFE75C985D90FFE75D985E902C
:1048F000FFE75E985F90FFE75F986090FFE7609842
:104900006190FFE761986290FFE762986390FFE72C
:1049100063986490FFE764986590FFE765986690F8
:10492000FFE7669846F20801C4F20201086067904A
:10493000FFE767987390FFE77398FFE7EA980068CE
:1049400046F25941C4F202018842C0F0BF80FFE73D
:10495000EA98006846F21001C4F20201884203D1CD
:10496000FFE704205B90AAE0EA98006846F2104155
:10497000C4F20201884203D1FFE704205A909BE071
:10498000EA98006846F27001C4F20201884203D13D
:10499000FFE7042059908CE0EA98006846F27041E5
:1049A000C4F20201884203D1FFE7042058907DE061
:1049B000EA98006846F22801C4F20201884204D154
:1049C000FFE74FF4807057906DE0EA98006846F278
:1049D0002841C4F20201884204D1FFE74FF48070FD
:1049E00056905DE0EA98006846F28801C4F2020140
:1049F000884204D1FFE74FF4807055904DE0EA986B
:104A0000006846F28841C4F20201884204D1FFE7FF
:104A10004FF4807054903DE0EA98006846F24001FF
:104A2000C4F20201884204D1FFE74FF48020539082
:104A30002DE0EA98006846F24041C4F20201884243
:104A400004D1FFE74FF4802052901DE0EA980068FF
:104A500046F2A001C4F20201884204D1FFE74FF4FC
:104A6000802051900DE0EA98016846F2A042C4F21D
:104A700002024FF08070914208BF4FF480205190A5
:104A8000FFE751985290FFE752985390FFE75398F1
:104A90005490FFE754985590FFE755985690FFE7DC
:104AA00056985790FFE757985890FFE758985990B5
:104AB000FFE759985A90FFE75A985B90FFE75B9899
:104AC00046F20C41C4F20201086055E2EA9800681F
:104AD00046F2B901C4F202018842C0F0C080FFE78B
:104AE000EA98006846F21001C4F20201884203D13C
:104AF000FFE704205090AAE0EA98006846F21041CF
:104B0000C4F20201884203D1FFE704204F909BE0EA
:104B1000EA98006846F27001C4F20201884203D1AB
:104B2000FFE704204E908CE0EA98006846F270415E
:104B3000C4F20201884203D1FFE704204D907DE0DA
:104B4000EA98006846F22801C4F20201884204D1C2
:104B5000FFE74FF480704C906DE0EA98006846F2F1
:104B60002841C4F20201884204D1FFE74FF480706B
:104B70004B905DE0EA98006846F28801C4F20201B9
:104B8000884204D1FFE74FF480704A904DE0EA98E4
:104B9000006846F28841C4F20201884204D1FFE76E
:104BA0004FF4807049903DE0EA98006846F2400179
:104BB000C4F20201884204D1FFE74FF480204890FC
:104BC0002DE0EA98006846F24041C4F202018842B2
:104BD00004D1FFE74FF4802047901DE0EA98006879
:104BE00046F2A001C4F20201884204D1FFE74FF46B
:104BF000802046900DE0EA98016846F2A042C4F297
:104C000002024FF08070914208BF4FF4802046901E
:104C1000FFE746984790FFE747984890FFE7489896
:104C20004990FFE749984A90FFE74A984B90FFE781
:104C30004B984C90FFE74C984D90FFE74D984E9065
:104C4000FFE74E984F90FFE74F985090FFE750983E
:104C500046F20841C4F20201086045908AE1EA98F0
:104C6000006846F25901C4F202018842C0F0C080D7
:104C7000FFE7EA98006846F21001C4F20201884298
:104C800003D1FFE704204490AAE0EA98006846F2C6
:104C90001041C4F20201884203D1FFE7042043908F
:104CA0009BE0EA98006846F27001C4F20201884273
:104CB00003D1FFE7042042908CE0EA98006846F2B6
:104CC0007041C4F20201884203D1FFE70420419001
:104CD0007DE0EA98006846F22801C4F202018842A9
:104CE00004D1FFE74FF4807040906DE0EA980068CF
:104CF00046F22841C4F20201884204D1FFE74FF492
:104D000080703F905DE0EA98006846F28801C4F246
:104D10000201884204D1FFE74FF480703E904DE0DD
:104D2000EA98006846F28841C4F20201884204D140
:104D3000FFE74FF480703D903DE0EA98006846F24E
:104D40004001C4F20201884204D1FFE74FF4802001
:104D50003C902DE0EA98006846F24041C4F202011E
:104D6000884204D1FFE74FF480203B901DE0EA9891
:104D7000006846F2A001C4F20201884204D1FFE7B4
:104D80004FF480203A900DE0EA98016846F2A04284
:104D9000C4F202024FF08070914208BF4FF48020AD
:104DA0003A90FFE73A983B90FFE73B983C90FFE74B
:104DB0003C983D90FFE73D983E90FFE73E983F903E
:104DC000FFE73F984090FFE740984190FFE7419808
:104DD0004290FFE742984390FFE743984490FFE7F3
:104DE000449846F20C01C4F2020108603990BEE01A
:104DF000EA98006846F21001C4F20201884203D129
:104E0000FFE704203890AAE0EA98006846F21041D3
:104E1000C4F20201884203D1FFE7042037909BE0EF
:104E2000EA98006846F27001C4F20201884203D198
:104E3000FFE7042036908CE0EA98006846F2704163
:104E4000C4F20201884203D1FFE7042035907DE0DF
:104E5000EA98006846F22801C4F20201884204D1AF
:104E6000FFE74FF4807034906DE0EA98006846F2F6
:104E70002841C4F20201884204D1FFE74FF4807058
:104E800033905DE0EA98006846F28801C4F20201BE
:104E9000884204D1FFE74FF4807032904DE0EA98E9
:104EA000006846F28841C4F20201884204D1FFE75B
:104EB0004FF4807031903DE0EA98006846F240017E
:104EC000C4F20201884204D1FFE74FF48020309001
:104ED0002DE0EA98006846F24041C4F2020188429F
:104EE00004D1FFE74FF480202F901DE0EA9800687E
:104EF00046F2A001C4F20201884204D1FFE74FF458
:104F000080202E900DE0EA98016846F2A042C4F29B
:104F100002024FF08070914208BF4FF480202E9023
:104F2000FFE72E982F90FFE72F983090FFE73098FB
:104F30003190FFE731983290FFE732983390FFE7E6
:104F400033983490FFE734983590FFE735983690E2
:104F5000FFE736983790FFE737983890FFE73898A3
:104F600046F20801C4F2020108603990FFE739985F
:104F70004590FFE74598FFE7EA98006846F25941F7
:104F8000C4F202018842C0F0BB80FFE7EA980068E3
:104F900046F21001C4F20201884203D1FFE701206A
:104FA0002D90A6E0EA98006846F21041C4F2020192
:104FB000884203D1FFE701202C9097E0EA9800682F
:104FC00046F27001C4F20201884203D1FFE70120DA
:104FD0002B9088E0EA98006846F27041C4F2020122
:104FE000884203D1FFE701202A9079E0EA9800681F
:104FF00046F22801C4F20201884203D1FFE74020B3
:1050000029906AE0EA98006846F22841C4F2020159
:10501000884203D1FFE7402028905BE0EA980068CF
:1050200046F28801C4F20201884203D1FFE7402022
:1050300027904CE0EA98006846F28841C4F20201E9
:10504000884203D1FFE7402026903DE0EA980068BF
:1050500046F24001C4F20201884204D1FFE74FF456
:10506000803025902DE0EA98006846F24041C4F275
:105070000201884204D1FFE74FF4803024901DE004
:10508000EA98006846F2A001C4F20201884204D105
:10509000FFE74FF4803023900DE0EA98016846F274
:1050A000A042C4F202024FF48000914208BF4FF4C4
:1050B00080302390FFE723982490FFE724982590E1
:1050C000FFE725982690FFE726982790FFE7279887
:1050D0002890FFE728982990FFE729982A90FFE772
:1050E0002A982B90FFE72B982C90FFE72C982D9077
:1050F000FFE72D9846F20C41C4F20201086049E234
:10510000EA98006846F2B901C4F202018842C0F090
:10511000BC80FFE7EA98006846F21001C4F2020181
:10512000884203D1FFE701202290A6E0EA980068B8
:1051300046F21041C4F20201884203D1FFE7012088
:10514000219097E0EA98006846F27001C4F20201EB
:10515000884203D1FFE70120209088E0EA980068A8
:1051600046F27041C4F20201884203D1FFE70120F8
:105170001F9079E0EA98006846F22801C4F2020123
:10518000884203D1FFE740201E906AE0EA98006859
:1051900046F22841C4F20201884203D1FFE74020D1
:1051A0001D905BE0EA98006846F28801C4F20201B3
:1051B000884203D1FFE740201C904CE0EA98006849
:1051C00046F28841C4F20201884203D1FFE7402041
:1051D0001B903DE0EA98006846F24001C4F20201EB
:1051E000884204D1FFE74FF480301A902DE0EA980E
:1051F000006846F24041C4F20201884204D1FFE750
:105200004FF4803019901DE0EA98006846F2A00142
:10521000C4F20201884204D1FFE74FF480301890B5
:105220000DE0EA98016846F2A042C4F202024FF48F
:105230008000914208BF4FF480301890FFE7189823
:105240001990FFE719981A90FFE71A981B90FFE74B
:105250001B981C90FFE71C981D90FFE71D981E905F
:10526000FFE71E981F90FFE71F982090FFE7209808
:105270002190FFE721982290FFE7229846F208410B
:10528000C4F202010860179082E1EA98006846F2D1
:105290005901C4F202018842C0F0BC80FFE7EA98DD
:1052A000006846F21001C4F20201884203D1FFE710
:1052B00001201690A6E0EA98006846F21041C4F278
:1052C0000201884203D1FFE70120159097E0EA9898
:1052D000006846F27001C4F20201884203D1FFE780
:1052E0000120149088E0EA98006846F27041C4F208
:1052F0000201884203D1FFE70120139079E0EA9888
:10530000006846F22801C4F20201884203D1FFE797
:10531000402012906AE0EA98006846F22841C4F200
:105320000201884203D1FFE7402011905BE0EA9838
:10533000006846F28801C4F20201884203D1FFE707
:10534000402010904CE0EA98006846F28841C4F290
:105350000201884203D1FFE740200F903DE0EA9828
:10536000006846F24001C4F20201884204D1FFE71E
:105370004FF480300E902DE0EA98006846F24041EC
:10538000C4F20201884204D1FFE74FF480300D904F
:105390001DE0EA98006846F2A001C4F202018842CA
:1053A00004D1FFE74FF480300C900DE0EA980168DB
:1053B00046F2A042C4F202024FF48000914208BFBC
:1053C0004FF480300C90FFE70C980D90FFE70D989C
:1053D0000E90FFE70E980F90FFE70F981090FFE7F1
:1053E00010981190FFE711981290FFE71298139010
:1053F000FFE713981490FFE714981590FFE71598AE
:105400001690FFE7169846F20C01C4F202010860FC
:105410000B90BAE0EA98006846F21001C4F202016B
:10542000884203D1FFE701200A90A6E0EA980068CD
:1054300046F21041C4F20201884203D1FFE7012085
:10544000099097E0EA98006846F27001C4F2020100
:10545000884203D1FFE70120089088E0EA980068BD
:1054600046F27041C4F20201884203D1FFE70120F5
:10547000079079E0EA98006846F22801C4F2020138
:10548000884203D1FFE7402006906AE0EA9800686E
:1054900046F22841C4F20201884203D1FFE74020CE
:1054A00005905BE0EA98006846F28801C4F20201C8
:1054B000884203D1FFE7402004904CE0EA9800685E
:1054C00046F28841C4F20201884203D1FFE740203E
:1054D00003903DE0EA98006846F24001C4F2020100
:1054E000884204D1FFE74FF4803002902DE0EA9823
:1054F000006846F24041C4F20201884204D1FFE74D
:105500004FF4803001901DE0EA98006846F2A00157
:10551000C4F20201884204D1FFE74FF480300090CA
:105520000DE0EA98016846F2A042C4F202024FF48C
:105530008000914208BF4FF480300090FFE7009850
:105540000190FFE701980290FFE702980390FFE7C0
:1055500003980490FFE704980590FFE705980690EC
:10556000FFE706980790FFE707980890FFE708987D
:105570000990FFE709980A90FFE70A9846F20801A8
:10558000C4F2020108600B90FFE70B981790FFE749
:105590001798FFE7EA980168086840F0160008606D
:1055A000EA980168486940F080004861EA98006C18
:1055B00020B9FFE7EA98806C38B1FFE7EA98016804
:1055C000086840F008000860FFE7EA98016808688A
:1055D00040F00100086009E0FFE7EA99002081F847
:1055E0003400FFE702208DF89B03FFE79DF89B0343
:1055F0008DF8AF03FFE79DF8AF030DF56C7D80BD1F
:1056000080B584B002900298806D019000F0B4FDE6
:105610000090029890F8350002280DD0FFE702991B
:1056200080204865FFE70299002081F83400FFE7F9
:1056300001208DF80F0055E002980168086820F0FD
:105640001600086002980168486920F080004861EF
:105650000298006C20B9FFE70298806C38B1FFE730
:1056600002980168086820F008000860FFE70298C7
:105670000168086820F001000860FFE702980068F0
:105680000068C007C8B1FFE700F076FD0099401A36
:10569000062811D3FFE702992020486502990320CC
:1056A00081F83500FFE70299002081F83400FFE718
:1056B00003208DF80F0015E0E0E70298C16D3F2050
:1056C0008840019988600299012081F83500FFE740
:1056D0000299002081F83400FFE7FFE700208DF8F1
:1056E0000F00FFE79DF80F0004B080BD82B000906E
:1056F000009890F83500022807D0FFE70099802035
:10570000486501208DF807000EE00099052081F81A
:10571000350000980168086820F001000860FFE784
:1057200000208DF80700FFE79DF8070002B07047E2
:1057300080B586B005900020039040F21C20C2F294
:105740000000006848F2B511C1F64E31A0FB01100F
:10575000800A02900598806D01900198006804907D
:1057600004980599C96DC840000700281AD5FFE7BD
:105770000598006800684007002812D5FFE70598E3
:105780000168086820F0040008600598C16D0820D1
:105790008840019988600599486D40F0010048658E
:1057A000FFE7FFE704980599C96DC840C007A0B19D
:1057B000FFE7059800684069000600280CD5FFE760
:1057C0000598C16D01208840019988600599486D50
:1057D00040F002004865FFE7FFE704980599C96DAE
:1057E000C8404007002814D5FFE705980068006806
:1057F000800700280CD5FFE70598C16D042088407C
:10580000019988600599486D40F004004865FFE7FC
:10581000FFE704980599C96DC840C006002847D520
:10582000FFE7059800680068000700283FD5FFE7FC
:105830000598C16D1020884001998860059800681E
:105840000068400300281AD5FFE705980068006843
:105850000003002809D4FFE70598006C20B1FFE79A
:105860000598016C8847FFE708E00598806C20B137
:10587000FFE70598816C8847FFE7FFE716E005988A
:1058800000680068C005002807D4FFE70598016894
:10589000086820F008000860FFE70598006C20B158
:1058A000FFE70598016C8847FFE7FFE7FFE7FFE7A1
:1058B00004980599C96DC8408006002840F18D8084
:1058C000FFE7059800680068C006002840F1848062
:1058D000FFE70598C16D20208840019988600598F0
:1058E00090F83500052834D1FFE70598016808686D
:1058F00020F01600086005980168486920F08000D3
:1059000048610598006C20B9FFE70598806C38B1B4
:10591000FFE705980168086820F008000860FFE7C5
:105920000598C16D3F208840019988600599012044
:1059300081F83500FFE70599002081F83400FFE782
:105940000598006D20B1FFE70598016D8847FFE7D6
:105950007BE0059800680068400300281AD5FFE73F
:105960000598006800680003002809D4FFE705983F
:10597000406C20B1FFE70598416C8847FFE708E0DD
:105980000598C06B20B1FFE70598C16B8847FFE71A
:10599000FFE720E0059800680068C005002811D4E2
:1059A000FFE705980168086820F010000860059975
:1059B000012081F83500FFE70599002081F83400C7
:1059C000FFE7FFE70598C06B20B1FFE70598C16BC3
:1059D0008847FFE7FFE7FFE7FFE70598406DA0B3C3
:1059E000FFE70598406DC00730B3FFE70599052034
:1059F00081F8350005980168086820F0010008600A
:105A0000FFE70398013003900299884201D9FFE72C
:105A100007E0FFE7059800680068C0070028F0D19C
:105A2000FFE70599012081F83500FFE7059900207F
:105A300081F83400FFE7FFE70598C06C20B1FFE76D
:105A40000598C16C8847FFE7FFE706B080BD0000FE
:105A500080B586B004900020039000F08DFB02908A
:105A6000049820B9FFE701208DF81700A3E00498FF
:105A7000406A08B1FFE7FFE70499022081F835008A
:105A8000FFE70499002081F83400FFE704980168DB
:105A9000086820F001000860FFE7049800680068CB
:105AA000C00790B1FFE700F067FB0299401A062893
:105AB0000AD3FFE70499202048650499032081F860
:105AC00035008DF8170076E0E7E704980068006875
:105AD0000390039848F23F01CFF210010840039071
